:100000007CC100000C942D200C94832093C100002F
:1000100091C100008FC100008DC100000C94D11768
:1000200089C100002CC2000085C100000C94CA14D4
:100030000C94412B7FC100007DC100007BC10000FA
:100040000C94A82C77C100000C94F22C73C1000012
:1000500071C100006FC100006DC100006BC10000E4
:100060000C94721967C10000771A7A1A7A1A7A1AF0
:100070007A1A7A1A7A1A7A1A92197A1A7A1A7A1AC9
:100080007A1A7A1A7A1A7A1A92197A1A7A1A7A1AB9
:100090007A1A7A1A7A1A7A1A9A197A1A7A1A7A1AA1
:1000A0007A1A7A1A7A1A7A1ABF197A1A7A1A7A1A6C
:1000B0007A1A7A1A7A1A7A1A9A197A1A7A1A7A1A81
:1000C0007A1A7A1A7A1A7A1AC4197A1A7A1A7A1A47
:1000D0007A1A7A1A7A1A7A1AC9197A1A7A1A7A1A32
:1000E0007A1A7A1A7A1A7A1ADA197A1A7A1A7A1A11
:1000F0007A1A7A1A7A1A7A1A031A7A1A7A1A7A1AD7
:100100007A1A7A1A7A1A7A1ACE197A1A7A1A7A1AFC
:100110007A1A7A1A7A1A7A1AE8197A1A7A1A7A1AD2
:100120007A1A7A1A7A1A7A1A051A7A1A7A1A7A1AA4
:100130007A1A7A1A7A1A7A1A051A7A1A7A1A7A1A94
:100140007A1A7A1A7A1A7A1A051A7A1A7A1A7A1A84
:100150007A1A7A1A7A1A7A1A051A7A1A7A1A7A1A74
:100160007A1A7A1A7A1A7A1A0E1A7A1A7A1A7A1A5B
:100170007A1A7A1A7A1A7A1A3E1A7A1A7A1A7A1A1B
:100180007A1A7A1A7A1A7A1A0E1A7A1A7A1A7A1A3B
:100190007A1A7A1A7A1A7A1A3E1A7A1A7A1A7A1AFB
:1001A0007A1A7A1A7A1A7A1A261A7A1A7A1A7A1A03
:1001B0007A1A7A1A7A1A7A1A421A7A1A7A1A7A1AD7
:1001C0007A1A7A1A7A1A7A1A421A7A1A7A1A7A1AC7
:1001D0007A1A7A1A7A1A7A1A571A7A1A7A1A7A1AA2
:1001E0007A1A7A1A7A1A7A1A711A7A1A7A1A7A1A78
:1001F0007A1A7A1A7A1A7A1A711A005EBCE2613F88
:10020000DD83C29C7E20A3FD1F419DC3217FFCA2F4
:10021000401E5F01E3BD3E6082DC237D9FC1421C26
:10022000FEA0E1BF5D0380DE3C62BEE0025CDF81D8
:10023000633D7C22C09E1D43A1FF4618FAA4277986
:100240009BC584DA3866E5BB5907DB856739BAE4B4
:1002500006581947A5FB7826C49A653BD987045AE6
:10026000B8E6A7F91B45C6987A24F8A6441A99C798
:10027000257B3A6486D85B05E7B98CD2306EEDB346
:10028000510F4E10F2AC2F7193CD114FADF3702E74
:10029000CC92D38D6F31B2EC0E50AFF1134DCE90A6
:1002A000722C6D33D18F0C52B0EE326C8ED0530D58
:1002B000EFB1F0AE4C1291CF2D73CA947628ABF506
:1002C00017490856B4EA6937D58B5709EBB5366834
:1002D0008AD495CB2977F4AA4816E9B7550B88D666
:1002E000346A2B7597C94A14F6A8742AC896154B18
:1002F000A9F7B6E80A54D7896B3511241FBECFEF92
:10030000D8E0DEBFCDBF12E0A0E0B1E0E4EFF5E65B
:1003100002C005900D92A034B107D9F727E0A0E400
:10032000B2E001C01D92AB3BB207E1F70E942C2D59
:100330000C94F83265CE60E08091EB050E940C29A8
:1003400061E08091EC050E940C2961E08091EB0551
:100350000E940C2960E08091EB050E940C2960E06E
:100360008091EC050E940C2988E490E00C94471ED3
:1003700008958093EB056093EC0540930E0661E0D1
:1003800070E00E94B32861E070E08091EC050E946B
:10039000B328D1CF0895CF92DF92EF92FF920F93BF
:1003A0001F93CF93DF938C018091400281110EC087
:1003B0000E949C2C6093F9057093FA058093FB05CD
:1003C0009093FC0581E08093400241C00E949C2CE8
:1003D0006093FF05709300068093010690930206D8
:1003E000C090F905D090FA05E090FB05F090FC056F
:1003F000DC01CB018C199D09AE09BF09893B9B40EB
:10040000A105B10520F197DF1092400220C08AE0DB
:1004100090E00E94471E80910E060E946C298993ED
:10042000999382E390E00E94471E61E08091EB0582
:100430000E940C2982E190E00E94471E60E08091BA
:10044000EB050E940C29C017D10709F704C0E80189
:10045000025F1F4FDCCFDF91CF911F910F91FF9073
:10046000EF90DF90CF9008951092B00087E08093D6
:10047000B1001092B20081E08093700008951F9245
:100480000F920FB60F9211248F93809145028F5FC8
:10049000809345028F910F900FBE0F901F9018957B
:1004A0008091410290914202A0914302B091440296
:1004B000892B8A2B8B2B09F46BC080EF0E94F81BD1
:1004C0008DE00E94F81B80E00E94F81B80911106CD
:1004D0000E94F81B809141028F770E94F81B809147
:1004E000410290914202A0914302B091440268946B
:1004F00016F8B695A795979587951694D1F78F77A7
:100500000E94F81B8091410290914202A091430207
:10051000B0914402072E7EE0B695A79597958795F2
:100520007A95D1F7702D8F770E94F81B8091410248
:1005300090914202A0914302B0914402072E75E1CE
:10054000B695A795979587957A95D1F7702D8F7762
:100550000E94F81B8091410290914202A0914302B7
:10056000B0914402072E7CE1B695A79597958795A3
:100570007A95D1F7702D0E94F81B87EF0E94F81B27
:1005800010924102109242021092430210924402D1
:100590000895809111060E943B298823D1F3E2EB54
:1005A000F0E0808190E090934B0280934A021082A9
:1005B00080914A0290914B0207970497F0F4809142
:1005C00011060E943B298111FACFE2EBF0E0808115
:1005D00090E090934B0280934A02108280914A02ED
:1005E00090914B029C01275031092430310538F09D
:1005F0004997039730F08FEF08958FEF089580E0CB
:10060000089581E008950F931F93CF93DF93109285
:100610004102109242021092430210924402C8E03A
:10062000D0E0B7DF81114DC02197D9F7C6E0D0E007
:10063000B0DF813009F045C02197D1F7AADF8111E1
:1006400040C0A7DF813009F03CC0CFE0D0E001E03E
:1006500010E09FDF8130F9F4C8010C2E02C0880F32
:10066000991F0A94E2F7092E000CAA0BBB0B4091CC
:100670004102509142026091430270914402842BE6
:10068000952BA62BB72B8093410290934202A09307
:100690004302B09344022197E0F680914102909189
:1006A0004202A0914302B0914402AA27BB27A35063
:1006B000BF4F8093410290934202A0934302B093B4
:1006C0004402DF91CF911F910F910895CF93DF9353
:1006D000809311061092B200C2EBD0E003C0888173
:1006E00010924502809111060E943B298111F7CF9B
:1006F0001092B200809111060E943B298823D1F309
:10070000E2EBF0E0808190E090934B0280934A020C
:10071000108280914A0290914B028C589109049763
:1007200068F5809111060E943B298111FACFE2EB16
:10073000F0E0808190E090934B0280934A02108217
:1007400080914A0290914B029C012454310925303A
:10075000310510F458DF12C08297039778F4809126
:1007600011060E943B298823D1F3E2EBF0E080815F
:1007700090E090934B0280934A021082DF91CF91D8
:1007800008958F929F92AF92BF92CF92DF92EF9295
:10079000FF921F93CF93DF936C01162F0E94DF1DF2
:1007A0004B015C01C6E4D2E00D2C000CEE08FF0802
:1007B00061E0812F0E940C29888199810E94471E47
:1007C00060E0812F0E940C29888199810E94471E38
:1007D0000E94DF1DDC01CB0188199909AA09BB0918
:1007E0008C159D05AE05BF0518F3DF91CF911F91C4
:1007F000FF90EF90DF90CF90BF90AF909F908F9041
:1008000008958F929F92AF92BF92CF92DF92EF9214
:10081000FF926C01F62E0E94DF1D4B015C0160E02F
:100820008F2D0E940C290D2C000CEE08FF080E9451
:10083000DF1DDC01CB0188199909AA09BB098C15B8
:100840009D05AE05BF0598F3FF90EF90DF90CF9028
:10085000BF90AF909F908F900895E62FF0E0ED5CF1
:10086000FE4FE0819E2F977041E050E09A0102C058
:10087000220F331F9A95E2F7F0E0F695E795F6958B
:10088000E795F695E795BF01660F771FE60FF71F0F
:10089000B096922F90953281932392839181292B48
:1008A0002183682F70E0CA010E94AB30072E000C34
:1008B000880B990B0E94E22E20E030E04AE754E4D6
:1008C0000E94D02F20E030E040EC50E40E94DF2D69
:1008D0000E94AF2E609346027093470280934802B5
:1008E000909349020895AF92BF92CF92DF92EF9218
:1008F000FF921F93CF93DF936B017C01142F59015B
:10090000642F86E2AADF612F88E293E23ADF612F4B
:1009100084E991E176DF1A141B04ECF4C0E0D0E026
:10092000FF204CF4612F80E392E02BDF612F80E405
:1009300096E067DF08C0612F80E392E022DF612F3D
:1009400080E392E05EDFCC0CDD1CEE1CFF1C2196E8
:10095000AC16BD0629F7612F80E392E012DF612F0C
:1009600080E090E04EDFDF91CF911F91FF90EF90FC
:10097000DF90CF90BF90AF900895AF92BF92CF928B
:10098000DF92EF92FF920F931F93CF93DF936C014F
:10099000C62FD0E0FE01EE0FFF1FEA59FD4F808108
:1009A0009181009749F00E946832FE01EE0FFF1F0F
:1009B000EA59FD4F11821082FE01EE0FFF1FE45B2A
:1009C000FD4F80819181009749F00E946832FE01BD
:1009D000EE0FFF1FE45BFD4F118210829091ED0539
:1009E00080910806981719F084E090E002C083E037
:1009F00090E08C9D80018D9D100D9C9D100D11240B
:100A00001093EF050093EE05C8010E94D0317C01E0
:100A1000FE01EE0FFF1FEA59FD4F91838083892B62
:100A2000F9F0C8010E94D0315C01FE01EE0FFF1FFA
:100A3000E45BFD4F91838083892B91F0A80160E0F6
:100A400070E0C7010E94F132A80160E070E0C501CA
:100A50000E94F132D0921006C0920F0681E01BC0B6
:100A6000C7010E946832CC0FDD1FFE01EA59FD4F1D
:100A700011821082C45BDD4F888199810E946832A7
:100A8000198218821092EF051092EE05109210064E
:100A900010920F0680E0DF91CF911F910F91FF9090
:100AA000EF90DF90CF90BF90AF90089541E02091FC
:100AB000ED0590910806291340E0382F32953695C0
:100AC000369533703093ED05982F92959F70937003
:100AD00090930806282F2695269523702093F605D7
:100AE00083708093040681E080930706E62FF0E090
:100AF000EE0FFF1FEA59FD4F0190F081E02DEF2B23
:100B000049F0391380E0481729F080910F06909141
:100B1000100633CF0895662321F1E82FF0E0E95B5A
:100B2000FE4FE0812E2F277081E090E002C0880FF9
:100B3000991F2A95E2F7F0E0F695E795F695E79587
:100B4000F695E7959F01220F331FE20FF31FB09632
:100B5000982F90952281922392839181892B818372
:100B60000895E82FF0E0E95BFE4F8081E82FF0E088
:100B7000F695E795F695E795F695E7959F01220F8F
:100B8000331FE20FF31FB096282F277081E090E00B
:100B900002C0880F991F2A95E2F7809591819823CA
:100BA000918392818923828308950F931F93CF931A
:100BB000C82F809157048F3F99F0809109068C13BC
:100BC0000FC080910A0690910B068617970741F493
:100BD00080910C06841304C080910D06821719F1D0
:100BE000822F8B01E9E0F6E0C08372836183438347
:100BF0002483409303066C2F59DF6C2FC801BDDEA0
:100C0000C82F882371F08091570488233CF061E05D
:100C100082DF60E0809157040E940C2981E080937C
:100C2000FE058C2F00C0CF911F910F910895CF9397
:100C3000C82F8091FE05882331F0809157048823C6
:100C400014F060E068DFC09357048091FE058823AC
:100C500039F061E08C2F5FDF60E08C2F0E940C295F
:100C60008C2F90E0FC01E85EFD4FE081F0E0EE0F9C
:100C7000FF1FE25FFD4F20813181309306062093F4
:100C80000506FC01E051FE4F80818093E605CF917F
:100C900008952F923F924F925F926F927F928F9220
:100CA0009F92AF92BF92CF92DF92EF92FF920F93FB
:100CB0001F93CF93DF93CDB7DEB72C970FB6F89481
:100CC000DEBF0FBECDBF222E332E4C875B875E2C3E
:100CD0004F2C28E631E040E050E00E94BE306B012E
:100CE0007C01662E7D2CE982FA82852C942CA02E24
:100CF000B12E24E682169104A104B10438F00F2E1F
:100D0000F3E68F2E912CA12CB12CF02DD501C4012E
:100D1000C297A109B048880F991F99231CF4919597
:100D20008195910924E630E0281B390B032E000C35
:100D3000440B550B622D732D8C859B856436710594
:100D40008105910520F063E670E080E090E00E946C
:100D50007C30982F872F762F662720E137E240E0FE
:100D600050E00E94BE3019012A01662D772D89813D
:100D70009A812CE330E040E050E00E94BE302A83AC
:100D800029833CE3239FC0011124092E000CAA0BE8
:100D9000BB0BA7019601281B390B4A0B5B0B942F49
:100DA000832F722F66272CE330E040E050E00E9452
:100DB000BE306A816170862F90E0982F88279A95BF
:100DC000280F391F33231CF4319521953109C901AE
:100DD000330FAA0BBB0B40E051E060E070E09A01DA
:100DE000AB01281B390B4A0B5B0BC201B1010E94FE
:100DF0007C30C72ED82EE92EFF2489818823B9F0B4
:100E00008130F1F0823039F1833081F18430B9F1F1
:100E1000853009F03FC0CF82D886E986FA862B82DA
:100E20003C824D825E82C12CD12C760133C02B8254
:100E30003C824D825E821F82188619861A862AC0DD
:100E4000CB82DC82ED82FE82720161011F821886F4
:100E500019861A861FC0CF82D886E986FA86720163
:100E600061011B821C821D821E8214C02F82388663
:100E700049865A861B821C821D821E820BC02F82CD
:100E8000388649865A86CB82DC82ED82FE82C12C6E
:100E9000D12C7601D501C401880F991FAA1FBB1F51
:100EA0006627782F892F9A2F24E630E040E050E023
:100EB0000E94BE30DA01C90182199309A409B5095B
:100EC0008C019D0136952795179507958B819C81FF
:100ED000AD81BE81800F911FA21FB31F9927AA2742
:100EE000BB27DC0199278827C00ED11EE21EF31E06
:100EF000FE2CED2CDC2CCC24EE24FF248C299D2907
:100F0000AE29BF294F81588569857A85400F511FC9
:100F1000621F731FBC01CD01642B2C960FB6F89491
:100F2000DEBF0FBECDBFDF91CF911F910F91FF901C
:100F3000EF90DF90CF90BF90AF909F908F907F9079
:100F40006F905F904F903F902F90089520910F06E3
:100F5000309110066217730708F060C09091ED059C
:100F60004091080694132BC0E82FF0E0EE0FFF1F0E
:100F7000E45BFD4F9B01220F331F620F731F208123
:100F80003181260F371F8091F605F901E80FF11D19
:100F90004081F901E90FF11D6081862F90E0A0E00A
:100FA000B0E0DC0199278827942B40910406F901D1
:100FB000E40FF11D2081BC01CD01622B0895E82FC3
:100FC000F0E0EE0FFF1FEA59FD4F660F771F660F27
:100FD000771F20813181260F371FF901E90FF11D9D
:100FE0005081F901E40FF11D6081862F90E0A0E0AF
:100FF000B0E0DC0199278827B52B40910406F90160
:10100000E40FF11D4081842B4091F605F901E40FB6
:10101000F11D2081BC01CD01722B089560E070E0CC
:10102000CB0108951F93CF93DF93CDB7DEB72997F8
:101030000FB6F894DEBF0FBECDBF182FF8DD80913C
:10104000EE059091EF059A838983E12FF0E0EE0F92
:10105000FF1FEA59FD4F0190F081E02DDF0111964D
:1010600080818B8380910706882309F43CC0E0913E
:101070000506F091060690818091E605982B9C83E9
:101080009081809589238D838D81898788E08887E9
:10109000F8945C816D81E0910506F09106064B8124
:1010A0003885298589819A81508347FD252F3A9576
:1010B0002083262F39F0441F00C000006083000009
:1010C00000C0F2CF38E04D9160830000019761F7D6
:1010D000F0930606E09305064B83388729879A83A9
:1010E0008983789440C0E0910506F09106069081CE
:1010F0008091E605982B9C839081809589238D8330
:101100008D818F8388E08E835C816D814B813E81F0
:101110002F8189819A81508347FD252F00C000C00F
:10112000208300C000C000C000C000C06083000079
:10113000262F3A9541F0441F000000C000C000C0B7
:1011400000C000C0E8CF38E04D9100C0608300C00F
:10115000019709F7F0930606E09305064B833E835B
:101160002F839A83898329960FB6F894DEBF0FBE2A
:10117000CDBFDF91CF911F910895CF93DF936093FF
:10118000030620910F0630911006232B09F44DC061
:10119000282F30E0220F331FF901EA59FD4F6081FB
:1011A0007181F901E45BFD4F40815181E0E0F0E0A5
:1011B0002091080630E0DB01A20FB31FEA01C20F45
:1011C000D31F988120910306929F900111243C9394
:1011D0002091F60530E0DB01A20FB31FEA01C20F38
:1011E000D31F988120910306929F900111243C9374
:1011F0002091040630E0DB01A20FB31FEA01C20F09
:10120000D31F988120910306929F900111243C9353
:1012100031966D5F7F4F4D5F5F4F20910F0630918C
:101220001006E217F30720F2FDDEDF91CF9108955B
:101230002F923F924F925F926F927F928F929F92E6
:10124000AF92BF92CF92DF92EF92FF920F93CF9324
:10125000DF93E0910F06F09110066E177F0708F0FC
:101260009BC04A01AA24BB24432E542E652E77240A
:101270009091ED05E09108069E131BC0E82FF0E069
:10128000DB01AA0FBB1FA60FB71FBF01660F771F99
:10129000FB01EA59FD4F0190F081E02D1F012A0E5C
:1012A0003B1EFB01E45BFD4F608171816A0F7B1F78
:1012B0003CC0E82FF0E0DB01AA0FBB1FAA0FBB1F49
:1012C000BF01660F771FFB01EA59FD4F0190F081C6
:1012D000E02D1F012A0E3B1EFB01E45BFD4F6081E8
:1012E00071816A0F7B1FC52EDD24EE24FF24D101FE
:1012F000A90FB11DE0910306EE2329F0CE9EF00167
:1013000011249F2F01C09C2D9C939091ED05FB0112
:10131000E90FF11D90910306992329F0C99ED00190
:1013200011249B2F01C09C2D908390910806FB01F6
:10133000E90FF11D80829091F605FB01E90FF11D87
:10134000408290910406FB01E90FF11D20839091EA
:101350000306C92FD0E08C9EB0018D9E700D112424
:101360004C9EF0014D9EF00D11242C9FD0012D9F1D
:10137000B00D112490910806E101C90FD11D7883A9
:101380009091F605E101C90FD11DF88390910406F3
:10139000F101E90FF11DB083011144DEDF91CF911E
:1013A0000F91FF90EF90DF90CF90BF90AF909F9004
:1013B0008F907F906F905F904F903F902F90089507
:1013C0008F929F92AF92BF92DF92EF92FF920F9314
:1013D0001F93CF93DF93D82E48015901772314F040
:1013E000552344F440910F06509110064150510985
:1013F00060E070E0461757072CF4962F872FBA014C
:10140000492F582F80910F0690911006009721F1D7
:10141000772314F460E070E0EB018617970708F477
:10142000EC017A01552314F4E12CF12C8E159F0563
:1014300008F47C018FEFE81AF80ACE15DF0550F4A6
:1014400000E0A5019401BE018D2DF2DE2196CE159E
:10145000DF05B0F38D2DE6DDDF91CF911F910F9168
:10146000FF90EF90DF90BF90AF909F908F90089586
:101470001F93CF93DF9320910F0630911006232BFB
:1014800001F1182FC82FD0E0CC0FDD1FFE01EA5963
:10149000FD4F4091EE055091EF0560E070E08081D6
:1014A00091810E94F132C45BDD4F4091EE05509175
:1014B000EF0560E070E0888199810E94F132812F10
:1014C000B1DDDF91CF911F9108952F923F924F92FE
:1014D0005F926F927F928F929F92AF92BF92CF92C4
:1014E000DF92EF92FF920F931F93CF93DF93CDB7CD
:1014F000DEB727970FB6F894DEBF0FBECDBF898346
:1015000028013901CA82DB82EC82FD824617570727
:1015100028F4962F872FBA01492F582F80910F0654
:1015200090911006009709F4DEC07F836E838617C2
:10153000970710F49F838E831A018417950708F488
:101540001C01F10131962E813F81E21BF30B4A8190
:101550005B8148595E4F441955099A01A3E8BDE2E1
:101560000E9402310024880F991F001C880F991FC8
:10157000001C892F902D68E671E0869F9001879F5F
:10158000300D969F300D1124421B530B24E6249FEF
:10159000C001259F900D1124BF010E9497306B015F
:1015A0004B013197B9F4460E571EB20180E090E02E
:1015B00012E3E12EF12C00E010E024E630E040E000
:1015C00050E067DB9B01AC0100E06E817F81898187
:1015D0002FDE87C012E3E12EF12C00E010E024E6BC
:1015E00030E040E050E0C301B20153DB9B01AC01AD
:1015F00000E06E817F8189811BDE6E817F816F5F5C
:101600007F4F7F836E836215730508F056C024E612
:10161000249DC001259D900D1124C69E5001C79E9A
:10162000B00CD69EB00C1124A80EB91E0F2EF0E1FE
:10163000CF2EF7E2DF2EF02D960128583341369554
:10164000279536952795ABE7B4E10E940231969530
:1016500087957C0100E010E0960136952795369538
:1016600027950E940231969587952C01612C712C4B
:10167000950136952795369527950E9402319695C6
:101680008795BC0168597E4F80E090E0A3019201EC
:1016900000DB9B01AC0100E06E817F818981C8DDA8
:1016A0008E819F8101969F838E83A80CB91C960121
:1016B00069018215930508F4BFCF12E3E12EF12CE6
:1016C00000E010E024E630E040E050E06A817B81F9
:1016D0008C819D81DEDA9B01AC0100E0B101898142
:1016E000A7DD89819FDC27960FB6F894DEBF0FBE79
:1016F000CDBFDF91CF911F910F91FF90EF90DF90C1
:10170000CF90BF90AF909F908F907F906F905F90A1
:101710004F903F902F900895AF92BF92CF92DF925B
:10172000EF92FF920F931F93CF93DF93662309F4F9
:101730006CC0C0910F06D0911006209709F465C0C7
:10174000182FC62E062E000CDD08CC15DD0510F472
:101750008FDE5BC016167CF0062E000C770B77230D
:101760001CF47195619571095B017E01E61AF70A17
:10177000C12CD12C27C02197E62E660FFF08CE156D
:10178000DF057CF0BE016C197D09812FDFDB9B0139
:10179000AC0100E0BE01812F4BDD2197CE15DF05A6
:1017A0008CF71E141F047CF5C0E0D0E000E020E0C0
:1017B00030E0A901BE01812F3BDD2196CE15DF056A
:1017C000A9F721C0B5016C0D7D1D812FBFDB9B01E9
:1017D000AC0100E0B601812F2BDD8FEFC81AD80ACB
:1017E000EC14FD0478F7EC16FD0668F400E020E048
:1017F00030E0A901B701812F1BDD8FEFE81AF80A4D
:10180000EC16FD0698F3812F0DDCDF91CF911F912F
:101810000F91FF90EF90DF90CF90BF90AF90089521
:101820002F923F925F926F927F928F929F92AF9290
:10183000BF92CF92DF92EF92FF920F931F93CF93BD
:10184000DF9300D0CDB7DEB7582E6DB67EB66623D7
:1018500009F4F3C0E0900F06F0901006E114F104D3
:1018600009F4EBC0862F660F990BB7010E949730E1
:1018700018160CF05EC02DB63EB6C82E880FDD08D7
:101880004601C601880F991F880F991F2DB73EB7D3
:10189000281B390B0FB6F8943EBF0FBE2DBF8DB776
:1018A0009EB701969A8389831C141D040CF0B7C05F
:1018B00087010C191D095C01B801852D47DBF50175
:1018C00061937193819391935F010F5F1F4FE016B6
:1018D000F10691F79CC0B70168197909852D36DBAF
:1018E0009B01AC0100E0B701852DA2DCF1E0EF1A0D
:1018F000F108EC14FD047CF71C141D04A4F4A98069
:10190000BA80E12CF12CF501219131914191519155
:101910005F0100E0B701852D8BDCFFEFEF1AFF0AB6
:10192000EC14FD0484F30FB6F8943EBE0FBE2DBE3A
:101930006BC02DB63EB6082E000C990B99231CF4F3
:101940009195819591098C014C01880F991F880F01
:10195000991F2DB73EB7281B390B0FB6F8943EBF21
:101960000FBE2DBF8DB79EB701969A83898310163F
:1019700011060CF05CC05C01C12CD12CB601852D88
:10198000E5DAF50161937193819391935F01FFEF24
:10199000CF1ADF0A0C151D0589F749C0B4016C0D7B
:1019A0007D1D852DD3DA9B01AC0100E0B601852DAC
:1019B0003FDC2FEFC21AD20AAC14BD0478F76501E0
:1019C000AE14BF04E0F48E189F08A80CB91CAA0C32
:1019D000BB1CAA0CBB1C89819A81A80EB91EF501FB
:1019E00021913191419151915F0100E0B601852D26
:1019F0001FDCFFEFCF1ADF0ACE14DF0480F30FB62F
:101A0000F8943EBE0FBE2DBE852D0CDB16C021E026
:101A1000E21AF108EC14FD040CF05DCF70CF31E058
:101A2000E31AF108EC14FD040CF47DCF54CF5701F8
:101A3000A818B908C12CD12CB1CF0FB6F8947EBE2E
:101A40000FBE6DBE0F900F90DF91CF911F910F9140
:101A5000FF90EF90DF90CF90BF90AF909F908F90CE
:101A60007F906F905F903F902F9008952F923F92BC
:101A70004F925F926F927F928F929F92AF92BF929E
:101A8000CF92DF92EF92FF920F931F93CF93DF934A
:101A900000D01F92CDB7DEB789834617570728F4C9
:101AA000962F872FBA01492F582F80910F069091BA
:101AB0001006009709F49AC07B836A8386179707FC
:101AC00010F49B838A838417950708F4AC011016E1
:101AD000110674F08981CCDC00E020E03FEF4FEF8D
:101AE00050E06A817B818981A3DB89819BDA7EC09A
:101AF0007A016A817B81E61AF70A57017FEFA71AFC
:101B0000B70AA901332324F444275527421B530B5A
:101B10004A9DC0014B9D900D5A9D900D1124B80116
:101B20000E9497304B01672B21F0A114B104F9F406
:101B30005BC082E0A816B10408F456C06A817B81BC
:101B40006F5F7F4F7B836A83E60EF71E00E020E025
:101B500030E0A9016A817B8189816ADB8A819B816E
:101B600001969B838A83E816F90681F73DC0C12C54
:101B7000D12C612C712C212C312C21012A94681438
:101B80007904D8F4C601B7010E9497309B0133272E
:101B9000C901A0E0B0E09C0111270027D201C101DA
:101BA000861B970BA109B109A9019801282B00E018
:101BB0006A817B8189813CDB08C000E020E030E065
:101BC000A9016A817B81898133DB7FEF671A770AFC
:101BD0008FEFC80ED11C6A817B816F5F7F4F7B8343
:101BE0006A836A147B0458F289811CDA0F900F9083
:101BF0000F90DF91CF911F910F91FF90EF90DF90A9
:101C0000CF90BF90AF909F908F907F906F905F909C
:101C10004F903F902F90089504C061507109810941
:101C200091096115710581059105B9F708959F9294
:101C3000AF92BF92CF92DF92EF92FF920F931F93DA
:101C4000CF93DF93E2E1F6E01082118212821382D9
:101C50001482FC01E35EF94F9080FC01ED5DF94FC9
:101C6000C08161E070E0892D0E94B32860E0892D79
:101C70000E940C29CC23A1F1A12C0F2EF4E2BF2E3F
:101C8000F02D0F2EF4EFCF2EF02DD12CE12CF12CD6
:101C900000E010E02C2F30E040E050E060E070E029
:101CA00080E090E00E9421310F2EF6E0AF2EF02D63
:101CB000B12CC12C0E94743129513C4F4F4F5F4FC2
:101CC0006F4F7F4F8F4F9F4F0E941D2F20E030E0BE
:101CD0004AE754E40E94472E0E94B42E9DDF05C0BF
:101CE00063E070E080E090E097DF60E070E0892DD5
:101CF0000E94B32888E290E00E94471EC0E9D1E02C
:101D000003C0219709F448C0892D0E943B298823EC
:101D1000C1F303C0219719F442C0C0E9D1E0892D75
:101D20000E943B298111F6CF08E2B12C10E803C0D4
:101D3000219719F437C0C0E9D1E0892D0E943B29D1
:101D40008823B1F30E94DF1D6B017C01C0E9D1E063
:101D500002C0219751F1892D0E943B298111F9CFB1
:101D60000E94DF1DDC01CB018C199D09AE09BF0962
:101D70008997A105B10538F0EB2DF0E0EE5EF94F43
:101D80008081812B8083169511F4B39410E8015063
:101D900091F680E090E00BC08EEF9FEF08C08EEFD1
:101DA0009FEF05C08EEF9FEF02C08EEF9FEFDF9198
:101DB000CF911F910F91FF90EF90DF90CF90BF9048
:101DC000AF909F90089510923606109235061092AB
:101DD000330610923206E2E3F6E08BE296E01292CE
:101DE000E817F907E1F70895CF93C82F60E00E9444
:101DF0008B058C2F90E0FC01E051FE4F2081209359
:101E00003406FC01E85EFD4FE081F0E0EE0FFF1FBD
:101E1000EC5FFD4F8081918190932A068093290683
:101E2000D2DFCF910895FF920F931F93CF93DF934B
:101E3000D09134060091290610912A06F894F801F1
:101E40008181FD2EF0948F2181837894CCE702C0AC
:101E5000C15041F182E090E00E94471EF80180816C
:101E60008D23B1F3F89482818F21828381818D2B20
:101E70008183789480EE91E00E94471EF894F801E7
:101E80008181F822F18286E490E00E94471EF801E9
:101E90008081D823C1E009F0C0E078948AE991E01C
:101EA0000E94471E8C2FDF91CF911F910F91FF90C1
:101EB00008950F931F93CF93DF9300913406C09141
:101EC0002906D0912A06F8948981802B89838A81FA
:101ED000102F109581238A8383E090E00E94471E93
:101EE0008981182319838AE090E00E94471EC881E7
:101EF000789485E390E00E94471EC02381E009F4B6
:101F000080E0DF91CF911F910F9108950F931F9360
:101F1000CF93DF93C8E0D0E000E011E0CADF811189
:101F2000012B110F2197D1F7802FDF91CF911F91B6
:101F30000F9108951F93CF93DF9310913406C091B2
:101F40002906D0912A0680FF16C0F8948A81912F25
:101F5000909589238A838981812B89838AE090E007
:101F60000E94471E8A81182B1A83789487E390E099
:101F70000E94471E15C0F8948A81912F909589235D
:101F80008A838981812B898381E490E00E94471EA6
:101F90008A81182B1A83789485E090E00E94471E6E
:101FA000DF91CF911F910895DF92EF92FF920F93EF
:101FB0001F93CF93DF93F82ED62E08E010E0C1E0F8
:101FC000D1E0E12C8D2F9F2D9C2309F48E2DB2DFC3
:101FD000CC0F01501109B1F7D11013C0F894E09162
:101FE0002906F0912A0691818091340680959823E4
:101FF0009183E0912906F0912A06928189238283B8
:102000007894DF91CF911F910F91FF90EF90DF9027
:1020100008950F931F93CF93DF938C0160E085E5C4
:10202000C3DFE801085F1F4F60E08991BDDFC01783
:10203000D107D1F7DF91CF911F910F910895BF92F2
:10204000CF92DF92EF92FF920F931F93CF93DF9384
:1020500020913506211160C0F92EE82EE4DE8111B1
:1020600007C010923606109235061092330673C0E0
:1020700060E080EF99DFD1E010E0C12C01E0DD24C9
:10208000D394B12C16DFC82F14DFC13009F053C030
:102090008130E1F437C080913606081750F4E12F03
:1020A000F0E0E55DF94F80818D23CD2D29F4CB2D16
:1020B00003C0CD2D0813CB2DC11106C0093008F087
:1020C0003DC0009333063AC0C13049F4E12FF0E03F
:1020D000E55DF94F80818D2B8083CD2D09C0E12FE7
:1020E000F0E0E55DF94F30812D2F209523232083EB
:1020F0008C2F20DF0F5FDD0F11F41F5FD1E0183050
:1021000008F4C0CF013440F0C0923606C11018C0A8
:1021100081E08093350614C0109236061092350681
:102120001092330680E017C081918D93E217F30778
:10213000D9F781E010C0C813D2CFADCFC02ECFCF1A
:1021400080912B06882341F3EBE2F6E0AE2DBF2D04
:1021500023E336E0E9CFDF91CF911F910F91FF90FC
:10216000EF90DF90CF90BF9008952FEF260F66235A
:1021700061F0A82FB92F80E0ED91E827F0E0E6505C
:10218000FE4F84912150C0F7089580E00895AF92EA
:10219000BF92CF92DF92EF92FF920F931F93CF9354
:1021A000DF93CDB7DEB764970FB6F894DEBF0FBEEE
:1021B000CDBF8C01CE010D9642DF811102C003DE3E
:1021C00034C067E0CE010D96D0DF9C8989132DC005
:1021D0008D85803111F0883241F525DECE010D96D6
:1021E00018DF61E084E4E0DE1EDECE010D9611DF33
:1021F00060E08EEBD9DECE0101966C015E019AE0C3
:10220000A90EB11C760182DED7018D937D01AA153E
:10221000BB05C9F7D8DDF801075F1F4FD6018D91C7
:102220006D018193E017F107C9F764960FB6F89432
:10223000DEBF0FBECDBFDF91CF911F910F91FF90F9
:10224000EF90DF90CF90BF90AF900895CF93DF9342
:102250008093DA02909106019F5F943618F4909370
:10226000060102C010920601C0910601D0E00E9452
:102270006C29CC0FDD1FCD51DD4F99838883E09110
:102280000601F0E0EE0FFF1FED51FD4F80819181BF
:10229000DF91CF910895482F50E020E030E0CA014F
:1022A0008217930724F4DA01AC59BF4F01C0DA0159
:1022B0002F5F3F4F8217930724F4FA01ED59FF4F28
:1022C00002C0FA013197AA0FBB1FAD51BD4FEE0FEF
:1022D000FF1FED51FD4F0D90BC91A02D60817181CC
:1022E0006A177B0790F44150510924303105C1F63B
:1022F00080913706882329F081E08093370680E0BB
:10230000089581E080933706089580E00895482F6E
:1023100050E020E030E0CA018217930724F4DA018C
:10232000AC59BF4F01C0DA012F5F3F4F82179307AF
:1023300024F4FA01ED59FF4F02C0FA013197AA0FB8
:10234000BB1FAD51BD4FEE0FFF1FED51FD4F0D9067
:10235000BC91A02D60817181A617B70738F4415058
:10236000510924303105C1F61092370608958F9235
:102370009F92AF92BF92CF92DF92EF92FF920F9314
:102380001F93CF93DF93CDB7DEB7A8970FB6F8941E
:10239000DEBF0FBECDBF80910601B9DF809106017F
:1023A0007ADF882309F4C0C00E949C2C6093DF026E
:1023B0007093E0028093E1029093E2020091DB02CD
:1023C0001091DC022091DD023091DE026B017C0174
:1023D000C01AD10AE20AF30A6093DB027093DC02AE
:1023E0008093DD029093DE02E091D90281E08E0FAE
:1023F0008093D902F0E0EE0FFF1FEE0FFF1FEF54A6
:10240000FD4FC082D182E282F3828A3010F01092B6
:10241000D9028091D5029091D602A091D702B091B5
:10242000D802892B8A2B8B2B09F478C0DE011196F8
:1024300088E2FD0111928A95E9F7E1EBF2E0DA2EEC
:10244000CB2E89ED92E041915191619171914D9323
:102450005D936D937D93E817F907A9F79E012B5DB6
:102460003F4F0F2EF9E0EF2EF12CF02D27C0ED2D70
:10247000FC2D81909190A190B19040815181628119
:102480007381481559056A057B0568F48F0104506E
:102490001109D8014D935D936D937C9313978082BE
:1024A0009182A282B382E217F30719F7B1E0EB1A27
:1024B000F10824503109E114F10421F01E141F0425
:1024C000B4F2F4CF8D8D9E8DAF8DB8A14D855E8514
:1024D0006F857889841B950BA60BB70B87399105FF
:1024E000A105B105F0F4FE013D96BE016F5D7F4F81
:1024F00020E030E0A90181919191A191B191280F43
:10250000391F4A1F5B1F6E177F07A9F760EE73E93B
:1025100084E090E00E94BE30C90108C080E090E0F5
:1025200005C080E090E002C080E090E0A8960FB681
:10253000F894DEBF0FBECDBFDF91CF911F910F91F9
:10254000FF90EF90DF90CF90BF90AF909F908F90D3
:1025500008958F929F92AF92BF92CF92DF92EF92A7
:10256000FF920F931F93CF93DF93CDB7DEB7A8975A
:102570000FB6F894DEBF0FBECDBFE0910601EE238B
:1025800019F08FEF8E0F01C083E6F0E0EE0FFF1F12
:10259000ED51FD4F20813181293E334008F4CBC0FD
:1025A000E82FF0E0EE0FFF1FED51FD4F808191818C
:1025B000449708F0C3C00E949C2C6093DF02709384
:1025C000E0028093E1029093E2020091DB0210911D
:1025D000DC022091DD023091DE026B017C01C01A29
:1025E000D10AE20AF30A6093DB027093DC02809363
:1025F000DD029093DE02E091B00281E08E0F8093C5
:10260000B002F0E0EE0FFF1FEE0FFF1FE857FD4F87
:10261000C082D182E282F3828A3010F01092B0023E
:102620008091AC029091AD02A091AE02B091AF0248
:10263000892B8A2B8B2B09F478C0DE01119688E256
:10264000FD0111928A95E9F7E8E8F2E0DA2ECB2E47
:1026500080EB92E041915191619171914D935D9325
:102660006D937D93E817F907A9F79E012B5D3F4F06
:102670000F2EF9E0EF2EF12CF02D27C0ED2DFC2DC3
:1026800081909190A190B19040815181628173813C
:10269000481559056A057B0568F48F010450110936
:1026A000D8014D935D936D937C93139780829182B3
:1026B000A282B382E217F30719F7B1E0EB1AF1082F
:1026C00024503109E114F10421F01E141F04B4F266
:1026D000F4CF8D8D9E8DAF8DB8A14D855E856F85B4
:1026E0007889841B950BA60BB70B89379105A1053B
:1026F000B105F0F4FE013D96BE016F5D7F4F20E015
:1027000030E0A90181919191A191B191280F391FD8
:102710004A1F5B1F6E177F07A9F760EE73E984E01D
:1027200090E00E94BE30C9010BC080E090E008C07C
:1027300080E090E005C080E090E002C080E090E0A2
:10274000A8960FB6F894DEBF0FBECDBFDF91CF9134
:102750001F910F91FF90EF90DF90CF90BF90AF90BF
:102760009F908F900895CF93C82F8091DA026EDDED
:10277000C13011F4EEDE01C0FADDCF9108958F92E1
:102780009F92AF92BF92CF92DF92EF92FF920F9300
:102790001F93CF93DF9300D01F92CDB7DEB706C053
:1027A00061E070E080E090E00E94051E80913B06B1
:1027B0000E943B298111F4CFCE0101967C016E016C
:1027C00092E0C91AD108812C912C5401839437C00E
:1027D00061E0809138060E940C2980913B060E949E
:1027E0003B29882379F0F7012281D501C401002E0D
:1027F00004C0880F991FAA1FBB1F0A94D2F7822B0F
:1028000082830FC0D501C401002E04C0880F991F18
:10281000AA1FBB1F0A94D2F78095F70192818923E2
:10282000828360E0809138060E940C2901501109D2
:1028300078F621E0E21AF108CE14DF0419F007E07F
:1028400010E0C6CF61E0809138060E940C2960E05C
:10285000809138060E940C292B816A81862F90E096
:10286000A0E0B0E0BA2FA92F982F8827A22B2981AA
:10287000822BBC01CD0180580F900F900F90DF91FB
:10288000CF911F910F91FF90EF90DF90CF90BF906D
:10289000AF909F908F900895CF92DF92EF92FF922A
:1028A000CF93C9E1C12CD12C760169DFC60ED71EAA
:1028B000E81EF91EC150C9F7C701B60129E130E091
:1028C00040E050E00E94E030CA01B901CF91FF9092
:1028D000EF90DF90CF900895CF93DF93962FEA018A
:1028E00080933B066093380661E070E0892F0E9478
:1028F000B32860E070E080913B060E94B32861E05D
:10290000809138060E940C2984E690E00E94471EC0
:1029100060E0809138060E940C29BEDFBDDF609325
:102920003C0670933D0680933E0690933F06D093FD
:102930003A06C0933906DF91CF910895CF92DF9286
:10294000EF92FF9220913B06FC012083A5DFC0900F
:102950003C06D0903D06E0903E06F0903F066C1994
:102960007D098E099F090E94E22E6B017C01609116
:10297000390670913A0680E090E00E94E02E9B01BB
:10298000AC01C701B6010E94472EFF90EF90DF9087
:10299000CF9008951F920F920FB60F9211242F938C
:1029A0003F934F935F936F937F938F939F93AF93D7
:1029B000BF93EF93FF938091AD0388232CF4109283
:1029C0008500109284002DC02091AD03022E000CD2
:1029D000330B8091070190E02817390714F5809197
:1029E000AD03082E000C990BFC01EE0FFF1F8E0F9C
:1029F0009F1FFC01E255FC4F808186FF12C0809131
:102A0000AD03082E000C990BFC01EE0FFF1F8E0F7B
:102A10009F1FFC01E255FC4F808160E08F730E9494
:102A20000C298091AD038F5F8093AD032091AD039E
:102A3000022E000C330B8091070190E02817390714
:102A40000CF040C08091AD038C30E4F520918400FF
:102A5000309185008091AD03082E000C990BFC018C
:102A6000EE0FFF1F8E0F9F1FFC01E255FC4F81816F
:102A70009281820F931F90938900809388008091A8
:102A8000AD03082E000C990BFC01EE0FFF1F8E0FFB
:102A90009F1FFC01E255FC4F808186FF2EC0809174
:102AA000AD03082E000C990BFC01EE0FFF1F8E0FDB
:102AB0009F1FFC01E255FC4F808161E08F730E94F3
:102AC0000C291BC08091840090918500049680346D
:102AD0009C4938F480E49CE99093890080938800B5
:102AE00009C080918400909185000496909389009C
:102AF000809388008FEF8093AD03FF91EF91BF919A
:102B0000AF919F918F917F916F915F914F913F9185
:102B10002F910F900FBE0F901F901895EF92FF927C
:102B20000F931F93CF93C82F7B018A0161E070E060
:102B30000E94B328EEEAF3E0CF738081807CC82B3B
:102B4000C08320E232E02E193F09C90199230CF419
:102B5000039695958795959587958093AC0320E688
:102B600039E0201B310BC90199230CF4039695958C
:102B70008795959587958093AB038091AE0386FDED
:102B80001FC081E090E0FC01EE0FFF1FE80FF91F6E
:102B9000E255FC4F208126FD13C001968C30910533
:102BA00091F71092800082E080938100109285005E
:102BB00010928400B19AEFE6F0E080818260808319
:102BC000EEEAF3E080818064808380E0CF911F9102
:102BD0000F91FF90EF900895AC018091AC0328E82D
:102BE00030E0281B310987FD3395C901880F991FF3
:102BF000880F991F481759078CF08091AB0328E57F
:102C000032E0281B310987FD3395220F331F220F35
:102C1000331FCA01241735070CF4C9012FB7F894E4
:102C20000297092E000CAA0BBB0B880F991FAA1F35
:102C3000BB1F8E7FBF719093B0038093AF032FBFF4
:102C40000895CF92DF92EF92FF92803222E09207B6
:102C50000CF040C0BC01992314F460E070E0809156
:102C6000AC03A8E8B0E06D01C81AD10887FDD39481
:102C7000D601AA0FBB1FAA0FBB1F6D01BB0FEE0829
:102C8000FF088091AB0328E532E0281B310987FD5E
:102C90003395220F331F220F331FC901330FAA0BA5
:102CA000BB0B9C01AD012C193D094E095F09DB01ED
:102CB000653B710514F0A4EBB0E00E941B3124EBDE
:102CC00030E040E050E00E94E030C20ED31EE41E2F
:102CD000F51EC60181DFFF90EF90DF90CF90089541
:102CE0008CE08093070180E090E028EB3BE0FC0162
:102CF000EE0FFF1FE80FF91FE255FC4F32832183CF
:102D000001968C30910599F708958F929F92AF921A
:102D1000BF92CF92DF92EF92FF920F931F93CF93C8
:102D200090910801981313C1CFC080930801A0EBC4
:102D3000B0E01C92E1EBF0E010829C9192609C93D9
:102D4000908191609083A82FB0E0FD01E85EFD4F77
:102D5000E081F0E0EE0FFF1FE25FFD4F0190F08198
:102D6000E02DF0934106E0934006FD01E051FE4F57
:102D7000908190934206A8C069017A01689413F883
:102D8000F694E794D794C7941694D1F781E0C81AC3
:102D9000D108E108F1088FEFC816D104E104F1046D
:102DA00009F008F456C069017A01689415F8F694A0
:102DB000E794D794C7941694D1F781E0C81AD10844
:102DC000E108F1088FEFC816D104E104F10411F015
:102DD00008F0A0C083E03EC0C32ED42EE52EFF2411
:102DE00081E0C81AD108E108F1088FEFC816D104B4
:102DF000E104F10409F008F4A6C069017A010B2E80
:102E0000B9E0F694E794D794C794BA95D1F7B02D6A
:102E100081E0C81AD108E108F1088FEFC816D10483
:102E2000E104F10409F008F490C0DA01C901072EA9
:102E30007BE0B695A795979587957A95D1F7702DF4
:102E40006C017D0121E0C21AD108E108F10887E098
:102E500001C082E0E1EBF0E09081987F892B8083D4
:102E60000115110551F4E0E7F0E080818D7F80834A
:102E700060E08C2F0E940C296DC081149104A10484
:102E8000B10471F0D801AA0FBB1FA50194010E94E3
:102E9000113128EE33E040E050E00E94BE3004C023
:102EA00020E03AEC4AE95BE3C092B30020934A0683
:102EB00030934B0640934C0650934D06E0E7F0E00C
:102EC00080818260808346C049015A018B01C82FEE
:102ED00061E070E00E94B328980140E050E060E0BB
:102EE00074E284EF90E00E94BE3069017A01F694AA
:102EF000E794D794C79481E0C81AD108E108F10893
:102F00008FEFC816D104E104F10411F008F034CFBA
:102F100081E0A0CF69017A01689416F8F694E794ED
:102F2000D794C7941694D1F781E0C81AD108E10864
:102F3000F1088FEFC816D104E104F10411F008F094
:102F40004BCF84E087CF85E085CF86E083CF9F3F5E
:102F500009F4EBCECF911F910F91FF90EF90DF908E
:102F6000CF90BF90AF909F908F900895909108015F
:102F7000891313C09FEF90930801E0E7F0E0908180
:102F80009D7F908391E09093B000E1EBF0E0908121
:102F90009877946090831092B30060E00C940C29B1
:102FA00008951F920F920FB60F9211242F933F9303
:102FB0004F935F936F937F938F939F93AF93BF9341
:102FC000EF93FF9380914A0690914B06A0914C0697
:102FD000B0914D06892B8A2B8B2B51F19091420693
:102FE000E0914006F091410680818927808380919D
:102FF0004A0690914B06A0914C06B0914D061816CA
:1030000019061A061B06BCF480914A0690914B06DD
:10301000A0914C06B0914D060197A109B10980938A
:103020004A0690934B06A0934C06B0934D0603C0FE
:10303000809108019BDFFF91EF91BF91AF919F912C
:103040008F917F916F915F914F913F912F910F9051
:103050000FBE0F901F901895CF93DF93EC01E09176
:103060009006F0919106309701F19091D7038091ED
:10307000D6039817D0F0161617068CF420E030E02F
:1030800090E0DE01A90FB11D4C91D901A05BB94FB1
:103090004C939F5F292F30E02617370794F3CB011D
:1030A0001092D7036093D6030995DF91CF910895CD
:1030B000E0914E06F0914F06309729F01092D4031C
:1030C0001092D303099508951092450481E08093EE
:1030D00043041092420461E082E10E940C2961E005
:1030E00083E10E940C29E9EBF0E080818E7F8083F0
:1030F00080818D7F808388E48093B80085E480930D
:10310000BC000895413208F04CC0909145049111E3
:10311000FCCF31E030934504209343042FEF2093FC
:10312000D80310921D04240F20931C0430934404F0
:1031300020914404880F822B8093440480914204A0
:10314000813081F410924204ABEBB0E0ECEBF0E0A4
:10315000809144048C93808183FDFACF85EC809329
:10316000BC0003C085EE8093BC0080914504813093
:10317000E1F380911D04841710F440911D04442351
:1031800089F0EEE1F4E0A62FB72F2FEF240F30E007
:10319000215E3B4F81918D93E217F307D9F7942F6E
:1031A00001C090E0892F08950F93413208F057C075
:1031B000309145043111FCCF92E090934504009387
:1031C00043049FEF9093D80310921D0440931C0476
:1031D000442371F0FB01AEE1B4E0415050E04F5F99
:1031E0005F4F640F751F91919D93E617F707D9F70D
:1031F0001092440490914404880F892B80934404D6
:1032000080914204813081F410924204ABEBB0E033
:10321000ECEBF0E0809144048C93808183FDFACF45
:1032200085EC8093BC0003C085EE8093BC00222314
:1032300041F080914504823021F480914504823030
:10324000E1F38091D8038F3F79F08091D8038032E9
:1032500041F08091D803803331F034E005C031E093
:1032600003C032E001C033E0832F0F9108954091F5
:10327000FA03262F30E0240F311D21323105ECF402
:10328000209145042430D9F4662381F0A82FB92F6A
:1032900080E090E03091FA032D91FC01E450FC4F66
:1032A000E30FF11D208301968617A0F38091FA03A6
:1032B000680F6093FA0380E0089581E0089582E04A
:1032C000089585ED8093BC00ECEBF0E0808184FDF7
:1032D000FDCF10924504089585EC8093BC001092B8
:1032E000450408951F920F920FB60F9211242F9349
:1032F0003F934F935F936F937F938F939F93AF937E
:10330000BF93EF93FF938091B900E82FE87F8E2F52
:1033100090E0893C910508F0EDC0FC01EC5CFF4FAA
:103320000C94FC30809144048093BB0085EC809326
:10333000BC00E0C090911D0480911C04981780F49B
:10334000E0911D0481E08E0F80931D04F0E0E25EA9
:10335000FB4F80818093BB0085EC8093BC00CAC08A
:1033600080914304882311F0ACDFC4C081E08093D6
:10337000420484EA8093BC0010924504BBC080E202
:103380008093D8039EDFB6C080E38093D80399DF93
:10339000B1C088E38093D8039FDFACC0E0911D04E7
:1033A00081E08E0F80931D048091BB00F0E0E25E0F
:1033B000FB4F808390911D0480911C04981720F48A
:1033C00085EC8093BC0096C085E88093BC0092C0D9
:1033D000E0911D0481E08E0F80931D048091BB005D
:1033E000F0E0E25EFB4F808380914304882311F07C
:1033F00068DF80C081E08093420484EA8093BC004F
:103400001092450477C05DDF75C083E0809345046A
:103410001092D90385EC8093BC006CC08091D903D5
:10342000803280F4E091D90381E08E0F8093D9033C
:103430008091BB00F0E0E652FC4F808385EC8093E6
:10344000BC0058C085E88093BC0054C045DF809123
:10345000D903803230F4E091D903F0E0E652FC4F1A
:1034600010826091D90370E0E0913E04F0913F0436
:103470008AED93E009951092D9033CC085E88093CA
:10348000BC0038C084E0809345041092FB03109286
:10349000FA03E0914004F091410409958091FA0308
:1034A000811105C081E08093FA031092FC03E09142
:1034B000FB0381E08E0F8093FB03F0E0E450FC4FB0
:1034C00080818093BB009091FB038091FA03981751
:1034D00020F485EC8093BC000DC085E88093BC008F
:1034E00009C085EC8093BC001092450403C0109283
:1034F000D803E7DEFF91EF91BF91AF919F918F913C
:103500007F916F915F914F913F912F910F900FBEDF
:103510000F901F9018951092D7031092D603109217
:10352000D4031092D303D0DD88E598E19093410451
:10353000809340048CE298E190933F0480933E0492
:103540000895462F613208F040E221E060E576E020
:10355000D9DD1092D7038093D603089591E090931C
:10356000D2038093D5031092D4031092D30308950D
:103570000F93CF93C82F0C2F21E04091D30360E726
:1035800076E08091D50310DE9091D303992311F05A
:103590008111F1CF1092D4031092D3031092D20371
:1035A000CF910F910895CF93DF931F92CDB7DEB7E0
:1035B00089838091D2038823A1F08091D303803244
:1035C000B8F48091D403E82FF0E0E059F94F9981E5
:1035D00090838F5F8093D4038093D30381E090E046
:1035E00009C061E0CE01019642DE81E090E002C0B8
:1035F00080E090E00F90DF91CF9108958091D60305
:1036000090E02091D703821B910908959091D703F0
:103610008091D603981750F4E92FF0E0E05BF94F62
:10362000208130E09F5F9093D70302C02FEF3FEFE0
:10363000C90108958F929F92AF92BF92CF92DF926D
:10364000EF92FF92CF93DF9390E0FC01E055F94FAA
:10365000D081FC01EE56F94FC081880F991F880F69
:10366000991FFC01E856F94FC080D180E280F380B9
:103670002D2F277081E090E0AC0102C0440F551F50
:103680002A95E2F79A01ED2FF0E0F695E795F69589
:10369000E795F695E795AF01440F551FE40FF51F29
:1036A000B096322F30954281342332833181232BDF
:1036B0002183EC2FF0E0F695E795F695E795F695E2
:1036C000E7959F01220F331FE20FF31FB0962C2FB7
:1036D000277002C0880F991F2A95E2F78095918183
:1036E0009823918392818923828360E08D2F0E94A9
:1036F0000C2982E090E0CBD261E08D2F0E940C2952
:103700008AE090E0C4D260E08D2F0E940C2957D24D
:103710004B015C018C2F0E943B2981110CC04FD2C0
:10372000DC01CB0188199909AA09BB09C816D90679
:10373000EA06FB0678F743D24B015C018C2F0E940E
:103740003B29882361F03BD2DC01CB018819990920
:10375000AA09BB09C816D906EA06FB0678F72FD2D4
:10376000681979098A099B0928E330E040E050E0B4
:103770000E94BE30C901DF91CF91FF90EF90DF90A2
:10378000CF90BF90AF909F908F900895CF93DF938D
:103790001F92CDB7DEB78FB78983F89489815F9385
:1037A00050E85093610050E0509361005F918FBFEB
:1037B0000F90DF91CF910895CF93DF931F92CDB7F4
:1037C000DEB79FB79983F8949981811106C0E4E62A
:1037D000F0E060958081682360839FBF0F90DF9148
:1037E000CF9108958091C000881F8827881F089571
:1037F000E0ECF0E0908195FFFDCF8093C60080E083
:1038000008958091C60008954F925F926F927F92C3
:103810008F929F92AF92BF92CF92DF92EF92FF92E0
:103820000F931F93CF93DF93EC016A017B01280173
:103830003901689412F876946794579447941694D3
:10384000D1F7888181FD0EC048015901072E73E12F
:10385000B694A794979487947A95D1F7702DD30155
:10386000C20115C0D901C801689413F8B695A7958F
:10387000979587951694D1F748015901072E74E161
:10388000B694A794979487947A95D1F7702D8C1558
:103890009D05AE05BF0578F1C814D904EA04FB0400
:1038A00060F1888181FF10C0A7019601220F331FAC
:1038B000441F551FC301B2010E94BE30DA01C90185
:1038C0000197A109B10913C0C901B801689413F89F
:1038D00096958795779567951694D1F7A7019601E8
:1038E0000E94BE30DA01C9010197A109B1099D8387
:1038F0008C8381E003C080E001C080E0DF91CF9144
:103900001F910F91FF90EF90DF90CF90BF90AF90FD
:103910009F908F907F906F905F904F9008950F933E
:103920001F93CF93DF93EC018B01803C910519F439
:1039300062E080E041DF8A818F738A8388818260C0
:103940008883F8012681358184819A81482F4370CC
:10395000440F997F942B9A8399818470880F880FE4
:103960009B7F892B89838A818F7C832B8A839A8191
:10397000977F822F880F880F880F892B8A83408139
:1039800051816281738100E014E224EF30E0CE01C6
:103990003BDF998198609983998190619983DF9148
:1039A000CF911F910F910895AF92BF92CF92DF9266
:1039B000EF92FF920F931F93CF93DF93E82EF12C9A
:1039C000EE0CFF1CEE0CFF1CEE0CFF1C182F110F51
:1039D000110F110FC0E0D0E000E022E0E21AF10880
:1039E000C62ED12CAA24A394B12CC7018C0F9D1FE5
:1039F0004297B0F4C6010C2E02C0959587950A94A3
:103A0000E2F780FF0DC0812F0E943B29882341F0FF
:103A1000C5010C2E02C0880F991F0A94E2F7082BEB
:103A200021961F5FC830D10501F7802FDF91CF911C
:103A30001F910F91FF90EF90DF90CF90BF90AF90CC
:103A400008955F926F927F928F929F92AF92BF92F2
:103A5000CF92DF92EF92FF920F931F93CF93DF935A
:103A60008A01FB015080452B09F04FC00FEF1FEF7B
:103A70004CC06701F70181917F0190E00C2E02C0DC
:103A8000880F991F0A94E2F785298F77B1DE2FEF0F
:103A9000821A920AF601808190E095012C1B3D0B61
:103AA00002C0959587952A95E2F7582E2196C73042
:103AB000D105A0F080169106C0F5852D8F7798DE90
:103AC000FFEF8F1A9F0A551C5524551C2797C730A6
:103AD000D10520F08016910680F327C0E614F70484
:103AE00021F08016910628F223C0209709F1801654
:103AF0009106F0F481E090E002C0880F991FCA950A
:103B0000E2F78150852174DE13C0009789F07B01B4
:103B10003B01680E791EC0E0D0E0812C912C0F2E65
:103B2000F7E0AF2EB12CF02DA4CFE614F704E9F2A4
:103B3000DF91CF911F910F91FF90EF90DF90CF9089
:103B4000BF90AF909F908F907F906F905F900895FF
:103B5000EF92FF920F931F93CF93DF93C82F162FEF
:103B60007A0180EF45DE8C2F43DE112391F0E701CF
:103B70001150012F10E00F5F1F4F0E0D1F1D40E071
:103B800050E0BE0181E090E05CDF2196C017D107D4
:103B9000B1F787EF2DDEDF91CF911F910F91FF904D
:103BA000EF900895FC0101900020E9F73197BF01E3
:103BB000681B790BAC0181E7CBCF089508953FB71F
:103BC000F8948091A0059091A105A091A205B091D3
:103BD000A30526B5A89B05C02F3F19F00196A11D8E
:103BE000B11D3FBFBA2FA92F982F8827820F911D93
:103BF000A11DB11DBC01CD01660F771F881F991F44
:103C0000660F771F881F991F08958F929F92AF921A
:103C1000BF92CF92DF92EF92FF926B017C01CFDFD8
:103C20004B015C01C114D104E104F10429F526C063
:103C3000C5DF10C021E0C21AD108E108F10888EE02
:103C4000880E83E0981EA11CB11CC114D104E104AC
:103C5000F104A1F0B4DFDC01CB0188199909AA09AC
:103C6000BB09883E9340A105B10520F7C114D104DA
:103C7000E104F104E9F602C0A1DFECCFFF90EF9080
:103C8000DF90CF90BF90AF909F908F90089582303B
:103C9000910538F0880F991F880F991F0597019794
:103CA000F1F7089510927107109248071092470794
:103CB0001092BE061092BD06109200071092BC062C
:103CC00080E48093720708950F931F93CF93DF933F
:103CD00000D000D0CDB7DEB78091B6068823E9F0DA
:103CE00009EB16E0F801608180E05EDEF8011081EA
:103CF000182380910307181781F0812F90E09C838F
:103D00008B8380E975DD42E050E0BE016D5F7F4F3F
:103D100082E090E096DE109303078091B706882337
:103D2000E9F009EB16E0F801618181E03DDEF80180
:103D30001181182380910407181781F0812F90E0DA
:103D40009A83898381E954DD42E050E0BE016F5FD0
:103D50007F4F82E090E075DE109304070F900F9084
:103D60000F900F90DF91CF911F910F910895CF93F6
:103D7000DF9300D0CDB7DEB77A836983803170F4EA
:103D80006115704458F4806E33DD42E050E0BE01AE
:103D90006F5F7F4F82E090E054DE06C08FEF28DD3A
:103DA0008FEF26DD8FEF24DD0F900F90DF91CF9105
:103DB0000895CF93DF93D2EFC0E0C431C0F4D63082
:103DC000B0F48C2F0E94AD28823089F48091540485
:103DD00090E00D2E02C0959587950A94E2F780FF3A
:103DE00006C08D2F0E946C29BC018D2FC0DFCF5FD4
:103DF000DF5FC43111F7DF91CF910895CF92DF9249
:103E0000FF920F931F93CF93DF93182FEB01F42EA4
:103E1000022F6F3F7F4F71F0812FA0DB8C2FC3DB10
:103E2000802FA6DB8091520490915304009721F0DB
:103E30002EDF02C0C0E0D0E06F2D812F82DBCF2CBF
:103E4000D12CDCDBC816D9060CF0D8DBEFEBF6E0A2
:103E50001083C183D3DB892B89F01C141D0474F4F7
:103E6000C1ECD6E00F2D10E00F53194FCFDB899333
:103E7000C5DB892B19F0C017D107C1F762E06F0DC0
:103E80004FEB56E087E764DEDF91CF911F910F91F2
:103E9000FF90DF90CF900895CF9380E009C08151CB
:103EA000823028F466E070E08C2F0E94B3288C2FBB
:103EB000C1E0C80FC43199F781E0809351042BDB36
:103EC000CF910895EF92FF921F93CF93DF9380914C
:103ED0008402909185029C012F5F3F4F30938502B1
:103EE0002093840220918602309187022817390797
:103EF0000CF057C08091820290918302892B09F4C3
:103F000050C08091810290E00E94170EBC019091F8
:103F10008102492F50E0FA01E35EF94FD081FA01A6
:103F2000E95EF94FC081109285021092840290934D
:103F300080029F5F909381022091820230918302E0
:103F4000215031094217530714F010928102672B58
:103F500041F5E2E1F6E090818181980F8281980F2E
:103F60008381980F81E02481921301C080E0182F93
:103F700080EF3EDC85E63CDC8D2F3ADC8C2F38DC94
:103F8000C2E1D6E00F2EF6E1EF2EF6E0FF2EF02D87
:103F900089912EDCCE15DF05D9F7812F29DC87EF3B
:103FA00027DCDF91CF911F91FF90EF900895CF9381
:103FB000DF9380914B0490914C049C012F5F3F4F05
:103FC00030934C0420934B042091490430914A04CF
:103FD000281739070CF03EC010924C0410924B0485
:103FE00080914F0490915004892BA1F18091470456
:103FF00021DBEC01209147043091480420934604D2
:10400000C9010196909348048093470480914F041E
:104010009091500401972817390724F01092480412
:104020001092470480EFE4DB83E6E2DBE091460494
:10403000F0E0E055F94F8081DBDB8C2F8F77D8DB08
:10404000CE01880F892F881F990B91958F77D0DB30
:1040500087EFCEDBDF91CF9108951F920F920FB6BD
:104060000F9211240F931F932F933F934F935F93BE
:104070006F937F938F939F93AF93BF93EF93FF9330
:10408000E09A0E949C2C0091F2051091F30520917A
:10409000F4053091F505DC01CB01801B910BA20BDF
:1040A000B30B883C9105A105B10558F40E949C2CE6
:1040B0006093F2057093F3058093F4059093F505F2
:1040C0000FC082E00E9466030E9450020E949C2C56
:1040D0006093F2057093F3058093F4059093F505D2
:1040E000FF91EF91BF91AF919F918F917F916F91D0
:1040F0005F914F913F912F911F910F910F900FBEA4
:104100000F901F9018951F920F920FB60F921124C7
:104110000F931F932F933F934F935F936F937F93CF
:104120008F939F93AF93BF93EF93FF93E19A0E9476
:104130009C2C0091F2051091F3052091F40530912B
:10414000F505DC01CB01801B910BA20BB30B883C66
:104150009105A105B10558F40E949C2C6093F205CD
:104160007093F3058093F4059093F5050FC083E0F9
:104170000E9466030E9450020E949C2C6093F205EC
:104180007093F3058093F4059093F505FF91EF91FB
:10419000BF91AF919F918F917F916F915F914F915F
:1041A0003F912F911F910F910F900FBE0F901F9075
:1041B0001895CF92DF92EF92FF920F931F93CF93B8
:1041C000DF93CDB7DEB7CD58D1090FB6F894DEBF77
:1041D0000FBECDBF80910707813709F402C689372A
:1041E00079F58091BD069091BE06039708F0F9C558
:1041F000C0900A01D0900B01F60101900020E9F770
:1042000031977F01EC18FD0880EFF2DA89E7F0DAE8
:1042100082E0EEDA86E0ECDAE114F10471F0860176
:10422000EC0CFD1C40E050E0B80181E090E009DCBE
:104230000F5F1F4F0E151F05A9F787EFD9DAD1C5FC
:104240009091BD061FEF190F843609F404C270F473
:104250008135E9F020F48D3009F44EC2C2C58F35A6
:1042600009F48FC1823609F4B4C1BBC58637C1F0E9
:1042700038F4893609F428C1803709F45EC1B1C524
:10428000883709F409C18A3709F432C1AAC580EF19
:10429000AFDA82E5ADDA81E0ABDA87EFA9DAA1C562
:1042A0000091090705FD9DC50E946418E7E0F7E04D
:1042B0008181928196FB992790F921E02927087145
:1042C000083039F118F4002341F08BC5003109F4AE
:1042D0003FC0083109F480C084C540D9133098F03C
:1042E00002E0202F30E0F901E75FF84F80818795E9
:1042F00088278795F901E85FF84F9081890F53D996
:104300000E5F011770F381E033D986E490E0BFDCE3
:1043100068C5163089F4E7E0F7E09481638170E0C6
:1043200030E8939F600D711D112446814795442705
:1043300047959581490F0AC0E7E0F7E0448147952A
:10434000442747959381490F6FEF7FEF57DD49C5AC
:1043500040910901642F042E000C770B6F5F7F4F93
:104360006830710524F08BE591E01CDC3AC516300D
:1043700091F4E7E0F7E09481638170E0A0E89A9F10
:10438000600D711D11249681392F3795332737958C
:104390009581930F0BC0E7E0F7E09481392F3795B3
:1043A000332737959381930F6FEF7FEF4F5F4093E4
:1043B0000901042E000C550BFA01EE0FFF1FEE0F42
:1043C000FF1F4E0F5F1FFA01E75BF84F8083728378
:1043D00061839383248305C51091090111168CF420
:1043E000612F012E000C770B6F5F7F4F161617069B
:1043F0000CF04EC090914907891709F4EEC490E083
:1044000012C08FEF80930901ECC4F901EE0FFF1F7A
:10441000EE0FFF1F2E0F3F1FF901E75BF84F2081C2
:10442000821709F4DBC49F5F292F30E02617370776
:1044300064F390E0D3C4983028F5A9014F5F5F4F33
:10444000DA01AA0FBB1FAA0FBB1FA40FB51FA75BE2
:10445000B84F8C91F901EE0FFF1FEE0FFF1F2E0FCB
:104460003F1FF901E75BF84F808311962D913C9136
:1044700012973283218313968C911397838314961A
:104480008C9184839F5F292F30E0261737079CF299
:10449000115010930901A5C4123080F0E7E0F7E055
:1044A0002281818190E0B0E82B9F800D911D112425
:1044B000009721F09093530480935204809151040B
:1044C00081118FC4E9DC8DC480EF92D98AE690D93E
:1044D00013EF8FE70FE706C0163010F4812F01C0ED
:1044E000802F1F5F85D91630B9F787EF81D979C43E
:1044F000E7E0F7E08281218130E0E0E88E9F200D47
:10450000311D112430932101209320012115310503
:1045100009F467C488E290E0B9010E949730709373
:104520004A046093490480ED97E0B9010E949730F6
:10453000709387026093860254C4153008F451C406
:10454000109108078EEF810F823108F04AC4E7E02E
:10455000F7E08581448150E030E8839F400D511D94
:1045600011248381628170E090E8899F600D711D44
:104570001124812F0E948E1564E070E0812FF3D505
:1045800030C4E7E0F7E091818281911117C09681F4
:10459000258130E0A0E89A9F200D311D1124032EC3
:1045A000000C440B550B9481638170E0B0E89B9F35
:1045B000600D711D11240E94851613C4913009F0FD
:1045C00010C420E030E0A90160E070E00E94851690
:1045D00008C420914F0430915004263031050CF06E
:1045E00000C4E7E0F7E0818180934E0492819093CC
:1045F0004D04D901AA0FBB1FAA0FBB1FA856B94F64
:104600006481438150E0E0E86E9F400D511D11240C
:10461000052E000C660B770B4D935D936D937C9389
:104620001397F901E055F94F8083F901EE56F94FE0
:1046300090836CE070E097D56CE070E080914D0461
:1046400092D580914F04909150040196909350041C
:1046500080934F04C6C3209182023091830226309A
:1046600031050CF045C0E7E0F7E081819281492FE8
:1046700050E04631510531F441E0F901ED5DF94F6B
:1046800040830DC04B30510531F44AE0F901ED5D36
:10469000F94F408304C08CE691E084DAA2C3F901AB
:1046A000E35EF94F8083F901E95EF94F90836FE093
:1046B00070E059D580918202909183020E94170E7A
:1046C000892B09F08EC360918202709183026F5F23
:1046D0007F4F709383026093820280918602909153
:1046E00087020E94AB30709387026093860279C381
:1046F00081EA91E057DA75C380910807FE0131968F
:104700009FE7DF011D929A95E9F78E3091F50E949F
:104710006418F12C11E0812F0E94AE1A81E00E94F2
:10472000B81A811108C0E1E0F0E0EC0FFD1FEF0DB9
:10473000F11D1083F3941F5F1F3769F780EF58D87E
:104740008DE056D88EE054D88F2D52D8FF2071F0CE
:104750008E010F5F1F4FF801EF0DF11D7F01D80192
:104760008D918D0145D8E016F106C9F787EF40D845
:1047700038C38111B7C080910907813009F04FC05B
:10478000E0910A07E093FD05F0E0E452FE4F20813E
:10479000822F90E096958795969587959695879523
:1047A000FC01EE0FFF1F8E0F9F1FFC01B0962770BC
:1047B00081E090E002C0880F991F2A95E2F780956A
:1047C0009181982391839281892382830E9434026C
:1047D0008091FD05823081F480915604811101C3DE
:1047E00081E080935604F894E89AE9E6F0E080814D
:1047F000826080837894F5C2833009F0F2C28091A0
:1048000055048111EEC281E080935504F894E99A31
:10481000E9E6F0E08081886080837894E2C28111CB
:10482000E0C2E7E0F7E0448150E060E070E0032E92
:104830003CE1440F551F661F771F3A95D1F7302D85
:104840009581892F90E0A0E0B0E0072E75E1880FF8
:10485000991FAA1FBB1F7A95D1F7702D842B952B1A
:10486000A62BB72B468150E060E070E0032E3EE0BF
:10487000440F551F661F771F3A95D1F7302D482BEF
:10488000592B6A2B7B2B878190E0A0E0B0E0880F4A
:10489000991FAA1FBB1F880F991FAA1FBB1F880F34
:1048A000991FAA1FBB1F880F991FAA1FBB1F880F24
:1048B000991FAA1FBB1F880F991FAA1FBB1F880F14
:1048C000991FAA1FBB1F842B952BA62BB72B2085C6
:1048D0002F77BC01CD01622B20E230E043810E94A2
:1048E00073047FC2873109F02EC1809109078111BD
:1048F00026C0E7E0F7E0F3800481B0E80B9F800179
:10490000112485818F77082B80EF0E94F81B8DE0A2
:104910000E94F81B87E10E94F81B22E54FEFB801C7
:104920008F2D0E94D505811103C00E94F81B03C082
:1049300081E00E94F81B87EF0E94F81B52C2813071
:1049400009F047C0E7E0F7E0008510E020E030E044
:104950000F2EF5E1000F111F221F331FFA95D1F71B
:10496000F02D818590E0A0E0B0E0072E7EE0880F7A
:10497000991FAA1FBB1F7A95D1F7702D082B192BF1
:104980002A2B3B2B828590E0A0E0B0E0689416F8DB
:10499000880F991FAA1FBB1F1694D1F7082B192B3C
:1049A0002A2B3B2B83858F77082B468170E8479F06
:1049B000A001112487818F77482B648180E8689F4C
:1049C000B001112485818F77682B83810E94E009D3
:1049D00008C2823039F4E7E0F7E0648183810E9405
:1049E000BD08FFC1833009F078C0E7E0F7E0C48478
:1049F000D12CE12CF12C0B2EB5E1CC0CDD1CEE1CE6
:104A0000FF1CBA95D1F7B02D858590E0A0E0B0E00D
:104A1000072E7EE0880F991FAA1FBB1F7A95D1F73A
:104A2000702DC82AD92AEA2AFB2A868590E0A0E0C0
:104A3000B0E0689416F8880F991FAA1FBB1F169440
:104A4000D1F7C82AD92AEA2AFB2A87858F77C82A6C
:104A5000008510E020E030E00F2EF5E1000F111F7F
:104A6000221F331FFA95D1F7F02D818590E0A0E049
:104A7000B0E0072E7EE0880F991FAA1FBB1F7A9512
:104A8000D1F7702D082B192B2A2B3B2B828590E018
:104A9000A0E0B0E0689416F8880F991FAA1FBB1F0A
:104AA0001694D1F7082B192B2A2B3B2B83858F7754
:104AB000082B468190E8499FA001112487818F77B8
:104AC000482B6481A0E86A9FB001112485818F770B
:104AD000682B83810E94650A84C1843039F4E7E041
:104AE000F7E0648183810E948C0B7BC1853039F4AF
:104AF000E7E0F7E0648183810E94100C72C1863088
:104B0000D1F4E7E0F7E0018510E0208530E0468150
:104B1000B0E84B9FA001112487818F77482B6481D7
:104B200080E8689FB001112485818F77682B83818D
:104B30000E94360D56C1873009F053C180910A0793
:104B40000E94380A4EC1893171F580910907893078
:104B500009F047C1F0900A078F2D0E94F40E8E01D4
:104B600000581F4F8CE0D8011D928A95E9F7C801C3
:104B70000E94C71080EF0E94F81B8DE00E94F81B76
:104B800089E10E94F81B8F2D0E94F81BF80180819B
:104B90000E94F81BD80111968C910E94F81B87EF98
:104BA0000E94F81B1EC1813209F09DC08091090747
:104BB000863149F4E7E0F7E045814E506481838116
:104BC0000E94B9010EC1823109F00BC18E0100585B
:104BD0001F4F8EE0F80111928A95E9F7C8010E94F3
:104BE000CB0180EF0E94F81B8DE00E94F81B81E250
:104BF0000E94F81BD8018D919C91880F892F881FE6
:104C0000990B8F770E94F81BF80180818F770E94A3
:104C1000F81BD80112968D919C911397880F892FBC
:104C2000881F990B8F770E94F81BF80182818F777C
:104C30000E94F81BD80114968D919C911597880FAE
:104C4000892F881F990B8F770E94F81BF8018481A8
:104C50008F770E94F81BD80116968D919C9117971B
:104C6000880F892F881F990B8F770E94F81BF801F6
:104C700086818F770E94F81BD80118968D919C91A0
:104C80001997880F892F881F990B8F770E94F81B1F
:104C9000F80180858F770E94F81BD8011A968D91B4
:104CA0009C911B97880F892F881F990B8F770E94E3
:104CB000F81BF80182858F770E94F81BD8011C969B
:104CC0008D919C911D97880F892F881F990B8F7745
:104CD0000E94F81BF80184858F770E94F81B87EFEC
:104CE0000E94F81B7EC0833209F056C080910907EC
:104CF000873071F4E7E0F7E0458130E8439FA00199
:104D000011248681482B648183810E946C1469C0C0
:104D10008A3009F066C0CE0180589F4F0E949E14D1
:104D20006B017C0120E030E0A901ADD7882324F499
:104D3000F7FAF094F7F8F094C701B6010E94B42E88
:104D4000162F072F80EF0E94F81B8DE00E94F81BA2
:104D500083E20E94F81BC058DF4F8881C058D040C2
:104D60000E94F81B802F0E94F81B812F0E94F81BC5
:104D700020E030E048EC52E4C701B6010E94D02F99
:104D8000F3D7862F64E60E948B30892F0E94F81B90
:104D900087EF0E94F81B25C0853219F5E7E0F7E0A0
:104DA0001281038182EF810F0E942611802F0E94C1
:104DB000B313082F80EF0E94F81B8DE00E94F81BB0
:104DC00085E20E94F81B812F0E94F81B802F0E9411
:104DD000F81B87EF0E94F81B04C090E0292F30E0F9
:104DE0002ACBC357DF4F0FB6F894DEBF0FBECDBF3F
:104DF000DF91CF911F910F91FF90EF90DF90CF90B7
:104E000008951F93CF93DF93182FEB0180917207C2
:104E100090E068177907A0F0E091F005F091F105B6
:104E2000309799F081E0809306078091F705909183
:104E3000F80509958091720790E0C817D90738F4F2
:104E4000C95FD84F188380E003C081E001C081E0D2
:104E5000DF91CF911F910895CF92DF92EF92FF9251
:104E60001F93CF93DF93909171079923A9F0873F08
:104E700021F4109271079DD968C16091BD067091AF
:104E8000BE06BFDF8091BD069091BE06019690934D
:104E9000BE068093BD0659C16091470770914807CF
:104EA0006115710509F40CC188230CF409C1615026
:104EB00071097093480760934707A3DF8091470704
:104EC00090914807892B09F040C18091BC06882346
:104ED00009F43BC1803D09F4E6C030F48039B1F1FA
:104EE000803C09F4B9C0E9C0843F09F453C0853F50
:104EF00009F4A2C0803E09F0E0C0C0910007C431AF
:104F000008F0DBC0E7E0F7E09181977080818F7750
:104F1000E82EF12C40E8949FE00CF11C1124D28182
:104F20008C2F1BD1833039F0843009F0C6C0C70103
:104F30000E942116C2C08EEF8C0F823108F0BDC0D6
:104F40006D2F6F77A7018C2F5ED2B7C0E7E0F7E037
:104F50008081E180F12C50E8859FE00CF11C112448
:104F600010910007110F110F110FC0E0D0E0CC24F9
:104F7000C394D12CB6010C2E02C0660F771F0A9481
:104F8000E2F76E21812F48D121961F5FC830D105ED
:104F900089F793C0E7E0F7E0D081ED2EF12CC181D5
:104FA0008C2FDBD08F3709F488C08EEF8C0F8231C5
:104FB00078F5E114F10421F09BE0E916F104A1F485
:104FC000EC2FE695E695E695F0E0E754F94F2C2FA7
:104FD000277081E090E002C0880F991F2A95E2F7C0
:104FE0009081892B808314C0EC2FE695E695E69599
:104FF000F0E0E754F94F2C2F277081E090E002C0D9
:10500000880F991F2A95E2F78095908189238083E4
:10501000B7018C2FA8D0D23009F04FC0CE5081E01C
:1050200090E002C0880F991FCA95E2F7909154044E
:10503000892B8093540441C0C09108078EEF8C0FD8
:105040008231D8F5D09107078C2F87D08130A9F510
:105050006D2F8C2FE1D031C080910007863068F52C
:1050600090910707911110C021E030E0A90102C022
:10507000440F551F8A95E2F7CA0180959091540418
:1050800089238093540419C021E030E0A90102C0B3
:10509000440F551F8A95E2F7CA0190915404892B59
:1050A000809354040AC0E0910007E33030F4F0E04C
:1050B000EA54F94F8091070780831092BC0645C0DF
:1050C000803F28F4982F9F7090930007807F803E48
:1050D00079F038F4803C49F1803D39F18039A9F507
:1050E00011C0843F79F0853FB1F0803F71F526C053
:1050F00083E090E0909348078093470780EE809389
:10510000BC0623C022E030E03093480720934707D5
:105110008093BC061AC082E090E090934807809389
:10512000470785EF8093BC0610C021E030E0309344
:105130004807209347078093BC0607C081E080930F
:1051400071071092BE061092BD06DF91CF911F919C
:10515000FF90EF90DF90CF900895E82FF0E0ED58AA
:10516000F84F8081089590E0FC01ED58F84F2081C0
:105170002F3709F450C0FC01ED58F84F60836115DA
:10518000710521F06130710521F10895FC01E45DA4
:10519000FD4F8081E82FF0E0F695E795F695E795CD
:1051A000F695E7959F01220F331FE20FF31FB0968C
:1051B000282F277081E090E002C0880F991F2A9560
:1051C000E2F780959181982391839281892382834C
:1051D0000895FC01E45DFD4FE0812E2F277081E0F2
:1051E00090E002C0880F991F2A95E2F7F0E0F6954B
:1051F000E795F695E795F695E7959F01220F331F02
:10520000E20FF31FB096982F9095228192239283FC
:105210009181892B81830895E82FF0E0E45DFD4FB3
:10522000E0819E2F977021E030E0A90102C0440F79
:10523000551F9A95E2F7CA01F0E0F695E795F695C5
:10524000E795F695E7959F01220F331FE20FF31FB5
:10525000B096342F30952281232322832181242B61
:105260002183662321F09281892B82830895828194
:10527000382332830895E82FF0E0E45DFD4FE081AC
:105280002E2F277081E090E002C0880F991F2A9589
:10529000E2F7F0E0F695E795F695E795F695E79550
:1052A0009F01220F331FE20FF31FDF019096982F0B
:1052B000909511962C911197292311962C93119763
:1052C00012962C911297922312969C9390A1982358
:1052D00081E009F480E00895EAE7F0E090819064CD
:1052E0009083908194FFFDCF806480937C00EAE7F7
:1052F000F0E0808180648083808186FDFDCF809195
:105300007800909179000895482F50E0FA01E45D0B
:10531000FD4FE0819E2F977021E030E002C0220F08
:10532000331F9A95E2F7F0E0F695E795F695E79545
:10533000F695E795DF01AA0FBB1FEA0FFB1FB0969A
:10534000922F90953281932392839181292B2183EF
:10535000611102C061CF08956F3F19F461E05CCF25
:105360000895FA01E45FFE4F90819330B9F028F47C
:10537000913051F0923069F03EC0973061F1983031
:1053800091F19430C1F515C084B5806884BD67BDC6
:10539000089584B5806284BD68BD0895E0E8F0E0BA
:1053A00080818068808370E07093890060938800BA
:1053B0000895E0E8F0E080818062808381E06F3FC3
:1053C00008F480E090E091958195910990938B008D
:1053D00080938A000895E0EBF0E08081806880830C
:1053E0006093B3000895E0EBF0E0808180628083F9
:1053F0006093B400089566231CF060E00DCF08951B
:1054000061E00ACF08953F924F925F926F927F9230
:105410008F929F92AF92BF92CF92DF92EF92FF92C4
:105420000F931F93CF93DF93C82F8BEF8C0F823096
:1054300050F42FEF629FC001112464E670E08BD618
:105440008C2F62DF0CC1D0E0FE01E45DFD4F808156
:10545000982F977021E030E0690102C0CC0CDD1C70
:105460009A95E2F790E0969587959695879596950B
:1054700087958C01000F111F080F191F005E1F4F29
:105480003C2C3094F80182818321828381818C2994
:105490008183FE01E295F295F07FFE27E07FFE27F3
:1054A000E95AFB4F88EC90E09387828787E390E08E
:1054B000958784874115510559F0FE01E295F295D3
:1054C000F07FFE27E07FFE27E95AFB4F5387428794
:1054D000662361F0FE01E295F295F07FFE27E07F02
:1054E000FE27E95AFB4F70E075876487C295D29515
:1054F000D07FDC27C07FDC27C95ADB4FEE24E39442
:10550000F12CFF86EE862A853B85032E000C440B8A
:10551000550B0F2EF0E98F2EF0ED9F2EF3E0AF2EFE
:10552000B12CF02DC501B4014BD6CA01B9016150AF
:1055300071098109910946D420E030E048EC52E439
:10554000A6D32B013C016C857D85072E000C880BB2
:10555000990B38D49B01AC01C301B20121D583D58D
:10556000FED3798368832A853B85032E000C440B88
:10557000550BC501B40124D6CA01B90161507109A6
:10558000810991091FD420E030E048EC52E47FD338
:105590004B015C018C859D8564E670E0681B790B8E
:1055A000072E000C880B990B0DD49B01AC01C50193
:1055B000B401F6D458D5D3D37B836A83888199818B
:1055C0009D838C83FF82EE821986188681E090E0AD
:1055D000892B29F0F8018281C82AC28204C0F8010F
:1055E000828138223282E5E6F4E040E050E080E05B
:1055F00090E0208131812130310549F4DA01AA0F90
:10560000BB1FA957B84F8D939C934F5F5F4F019677
:1056100070968431910569F75093980540939705EA
:10562000F89410928000E1E8F0E01082109285007A
:105630001092840081E090E090938900809388002C
:1056400080818860808380818160808380818260A6
:105650008083EFE6F0E08081846080837894DF913E
:10566000CF911F910F91FF90EF90DF90CF90BF905F
:10567000AF909F908F907F906F905F904F903F90F2
:1056800008951F920F920FB60F921124AF92BF92FE
:10569000DF92EF92FF920F931F932F933F934F93BD
:1056A0005F936F937F938F939F93AF93BF93CF93AA
:1056B000DF93EF93FF930BC08091990590919A052A
:1056C000019690939A05809399050E94011C0E946F
:1056D000F21B8111F1CF609187077091880740918B
:1056E000970550919805141615060CF0EFC0A7E821
:1056F000B7E0440F551F4957584F9D01AA24A39462
:10570000B12CE901899199919E01FC01E295F295F4
:10571000F07FFE27E07FFE27E95AFB4F0084F185EA
:10572000E02D319709F048C0FC01E45DFD4FD080C9
:10573000ED2DF0E0F695E795F695E795F695E7956A
:105740007F01EE0CFF1CEE0DFF1DB0967C01EE0CF0
:10575000FF1CEE0CFF1CEE0CFF1CEE0CFF1C870167
:10576000095A1B4FE801EE80FF80EF2869F0F280B4
:10577000CD2DC770850102C0000F111FCA95E2F739
:10578000E801CF29C2830DC0D281CD2DC77075012C
:1057900002C0EE0CFF1CCA95E2F7CE2DC095CD23BA
:1057A000C283FC01E295F295F07FFE27E07FFE27A1
:1057B000E95AFB4F11861086EC01C295D295D07F35
:1057C000DC27C07FDC27C95ADB4FFB01E295F2954D
:1057D000F07FFE27E07FFE27E95AFB4F0C80DD813A
:1057E000C02D0480F581E02DEC17FD070CF0BC0105
:1057F0004217530709F085CF75C08D919D91FC012B
:10580000E295F295F07FFE27E07FFE27E95AFB4FF5
:1058100024813581261B370B35832483232B09F004
:1058200048C0FC01E295F295F07FFE27E07FFE275D
:10583000E95AFB4F268137812130310571F4FC0193
:10584000E295F295F07FFE27E07FFE27E95AFB4FB5
:1058500022813381358324830DC0FC01E295F295CA
:10586000F07FFE27E07FFE27E95AFB4F2081318140
:1058700035832483EC01C295D295D07FDC27C07F8D
:10588000DC27C95ADB4F2E813F81FC01FF27E295BF
:10589000F295F07FFE27E07FFE27E95AFB4F008755
:1058A0001187902F812F232B11F09E2D8F2D9E83FA
:1058B0008F834A175B0709F0A0CF7093890060932C
:1058C000880010928500109284001CC06295729529
:1058D000707F7627607F7627FB01E95AFB4F648152
:1058E0007581EBCF62957295707F7627607F762702
:1058F000FB01E95AFB4F6481758101E010E0E12C66
:10590000F12C7BCFFF91EF91DF91CF91BF91AF91C0
:105910009F918F917F916F915F914F913F912F91C7
:105920001F910F91FF90EF90DF90BF90AF900F907D
:105930000FBE0F901F9018952FB7F89460919C059B
:1059400070919D0580919E0590919F052FBF0895B0
:105950001F920F920FB60F9211242F933F938F93A4
:105960009F93AF93BF9380919C0590919D05A091CB
:105970009E05B0919F0530919B0523E0230F2D37A5
:1059800020F40196A11DB11D05C026E8230F029643
:10599000A11DB11D20939B0580939C0590939D05AF
:1059A000A0939E05B0939F058091A0059091A105BD
:1059B000A091A205B091A3050196A11DB11D8093F0
:1059C000A0059093A105A093A205B093A305BF9154
:1059D000AF919F918F913F912F910F900FBE0F909C
:1059E0001F9018951F920F920FB60F9211242F93AC
:1059F0004F935F938F939F93EF93FF932091C600F4
:105A00008091A4059091A505AC014F5F5F4F509325
:105A1000A5054093A405FC01EA53FA4F2083FF91AA
:105A2000EF919F918F915F914F912F910F900FBEAA
:105A30000F901F901895E1ECF0E0808180688083E2
:105A4000808180618083E2ECF0E0808184608083EB
:105A50008081826080830895CF93DF93CDB7DEB7D6
:105A600027970FB6F894DEBF0FBECDBF80E091EE52
:105A7000A0E0B0E089839A83AB83BC8383E08D830D
:105A80001E821F82BE016F5F7F4F80EC90E00E94FC
:105A90008F1C0E94C61B789484B5826084BD84B537
:105AA000816084BD85B5826085BD85B5816085BD19
:105AB000EEE6F0E0808181608083E1E8F0E0108232
:105AC000808182608083808181608083E0E8F0E073
:105AD000808181608083E1EBF0E08081846080835D
