:10000000D9C100000C9440230C949623F0C1000049
:10001000EEC10000ECC10000EAC10000E8C1000030
:10002000E6C10000E4C100000C940B1F0C94A21D5B
:10003000DEC10000DCC10000DAC10000D8C1000050
:10004000D6C100000C944116D2C10000D0C10000FE
:10005000CEC10000CCC10000CAC100000C946B2FBF
:10006000C6C10000C4C10000C2C10000C0C1000080
:10007000BEC10000BCC10000BAC10000B8C1000090
:10008000B6C100000C94042EB2C10000B0C1000043
:100090000C947E19ACC10000AAC10000A8C10000E8
:1000A000A6C10000A4C10000A2C10000831A861AE4
:1000B000861A861A861A861A861A861A9E19861A29
:1000C000861A861A861A861A861A861A9E19861A19
:1000D000861A861A861A861A861A861AA619861A01
:1000E000861A861A861A861A861A861ACB19861ACC
:1000F000861A861A861A861A861A861AA619861AE1
:10010000861A861A861A861A861A861AD019861AA6
:10011000861A861A861A861A861A861AD519861A91
:10012000861A861A861A861A861A861AE619861A70
:10013000861A861A861A861A861A861A0F1A861A36
:10014000861A861A861A861A861A861ADA19861A5C
:10015000861A861A861A861A861A861AF419861A32
:10016000861A861A861A861A861A861A111A861A04
:10017000861A861A861A861A861A861A111A861AF4
:10018000861A861A861A861A861A861A111A861AE4
:10019000861A861A861A861A861A861A111A861AD4
:1001A000861A861A861A861A861A861A1A1A861ABB
:1001B000861A861A861A861A861A861A4A1A861A7B
:1001C000861A861A861A861A861A861A1A1A861A9B
:1001D000861A861A861A861A861A861A4A1A861A5B
:1001E000861A861A861A861A861A861A321A861A63
:1001F000861A861A861A861A861A861A4E1A861A37
:10020000861A861A861A861A861A861A4E1A861A26
:10021000861A861A861A861A861A861A631A861A01
:10022000861A861A861A861A861A861A7D1A861AD7
:10023000861A861A861A861A861A861A7D1A080B54
:100240000002020201000904000001020200000590
:1002500024001001052401010104240206052406DE
:1002600000010705810310004009040100020A0093
:10027000000007050202400000070583024000005D
:10028000005EBCE2613FDD83C29C7E20A3FD1F4176
:100290009DC3217FFCA2401E5F01E3BD3E6082DC66
:1002A000237D9FC1421CFEA0E1BF5D0380DE3C6256
:1002B000BEE0025CDF81633D7C22C09E1D43A1FF46
:1002C0004618FAA427799BC584DA3866E5BB590736
:1002D000DB856739BAE406581947A5FB7826C49A26
:1002E000653BD987045AB8E6A7F91B45C6987A2416
:1002F000F8A6441A99C7257B3A6486D85B05E7B906
:100300008CD2306EEDB3510F4E10F2AC2F7193CDF5
:10031000114FADF3702ECC92D38D6F31B2EC0E50E5
:10032000AFF1134DCE90722C6D33D18F0C52B0EED5
:10033000326C8ED0530DEFB1F0AE4C1291CF2D73C5
:10034000CA947628ABF517490856B4EA6937D58BB5
:100350005709EBB536688AD495CB2977F4AA4816A5
:10036000E9B7550B88D6346A2B7597C94A14F6A895
:10037000742AC896154BA9F7B6E80A54D7896B3585
:1003800012010002EF020140412336800001010208
:10039000030141726475696E6F204C4C43004172D9
:1003A0006475696E6F204C656F6E6172646F0004D6
:1003B0000309040011241FBECFEFDAE0DEBFCDBF7A
:1003C00012E0A0E0B1E0EEEDFAE602C005900D9279
:1003D000A435B107D9F727E0A4E5B2E001C01D922A
:1003E000AD3EB207E1F70E94B52F0C946D3508CEF3
:1003F00060E08091E6050E941B2C61E08091270659
:100400000E941B2C61E08091E6050E941B2C60E09D
:100410008091E6050E941B2C60E0809127060E94D7
:100420001B2C88E490E00C943A210895CF93DF933D
:1004300000D000D000D0CDB7DEB78093E605609342
:10044000270696E0E2E2F1E0DE01119601900D92BE
:100450009A95E1F7E1E0F0E0EC0FFD1FE40FF11DEC
:10046000908190934B0661E070E00E94C22B61E0A6
:1004700070E0809127060E94C22BBADF26960FB645
:10048000F894DEBF0FBECDBFDF91CF910895CF921C
:10049000DF92EF92FF920F931F93CF93DF938C0124
:1004A0008091540281110EC00E945F2F6093340628
:1004B00070933506809336069093370681E08093DB
:1004C000540241C00E945F2F60933B0670933C062C
:1004D00080933D0690933E06C0903406D09035063A
:1004E000E0903606F0903706DC01CB018C199D09AF
:1004F000AE09BF09893B9B40A105B10520F178DF1A
:100500001092540220C08AE090E00E943A2180912B
:100510004B060E947B2C8993999382E390E00E9482
:100520003A2161E08091E6050E941B2C82E190E077
:100530000E943A2160E08091E6050E941B2CC017C2
:10054000D10709F704C0E801025F1F4FDCCFDF913C
:10055000CF911F910F91FF90EF90DF90CF90089572
:10056000FC0190819E5F908342E450E06EE372E074
:1005700080E80C94451D0895EEEFFFE72591349136
:1005800081E02B3F3C4D09F080E00895CF93DF934D
:10059000CDB7DEB728970FB6F894DEBF0FBECDBF3C
:1005A000E22F29833A834B835C836D837E838F8321
:1005B0009887E13A61F4313209F086C047E050E0B3
:1005C0006CE071E080E00E94451D81E084C0E13272
:1005D00009F07CC08B81333279F42C8190E0922B2E
:1005E000A0E0B0E08093080190930901A0930A0174
:1005F000B0930B0181E06FC0303241F467E070E0EE
:100600008CE091E00E946E1D81E065C0323209F0FD
:100610005FC080931301B0DF882319F0EEEFFAE09A
:1006200002C0E0E0F8E080910C0190910D01A091F2
:100630000E01B0910F01803B9440A105B10531F549
:100640008091130180FD22C0EE3F4AE0F40751F093
:1006500080819181873727E7920721F09093FF0AE5
:100660008093FE0A87E797E79183808380916000FB
:10067000809355029BE088E10FB6F894A89580938B
:1006800060000FBE9093600081E025C08081918161
:1006900087379747F9F4A895A0E6B0E08C91886178
:1006A0008C93809155028C93EE3F8AE0F80741F0DD
:1006B0008091FE0A9091FF0A9183808381E00BC0B4
:1006C0001182108281E007C080E005C080E003C095
:1006D00081E001C081E028960FB6F894DEBF0FBE1E
:1006E000CDBFDF91CF91089520911301222389F08E
:1006F000AB01BC0183E00E94641C181619068CF043
:1007000081E090E0909307018093060180E090E003
:10071000089581E090E0909307018093060180E0C6
:1007200090E00895CF93DF931F92CDB7DEB7898312
:1007300061E070E0CE010196D7DF0F90DF91CF919D
:1007400008951092800085E08093810010928200CD
:10075000109285001092840010926F00089580918D
:10076000560290915702A0915802B0915902892BDC
:100770008A2B8B2B09F46BC080EF0E94C11F8DE088
:100780000E94C11F80E00E94C11F80914E060E94FE
:10079000C11F809156028F770E94C11F809156021F
:1007A00090915702A0915802B0915902689416F89E
:1007B000B695A795979587951694D1F78F770E9450
:1007C000C11F8091560290915702A0915802B0919A
:1007D0005902072E7EE0B695A795979587957A954D
:1007E000D1F7702D8F770E94C11F80915602909192
:1007F0005702A0915802B0915902072E75E1B695A3
:10080000A795979587957A95D1F7702D8F770E9448
:10081000C11F8091560290915702A0915802B09149
:100820005902072E7CE1B695A795979587957A95FD
:10083000D1F7702D0E94C11F87EF0E94C11F109237
:1008400056021092570210925802109259020895BF
:1008500080914E060E944A2C8823D1F3E4E8F0E010
:100860008081918190935F0280935E021182108259
:1008700080915E0290915F0207970497F8F480914F
:100880004E060E944A2C8111FACFE4E8F0E0808104
:10089000918190935F0280935E0211821082809119
:1008A0005E0290915F029C0127503109243031058E
:1008B00038F04997039730F08FEF08958FEF089540
:1008C00080E0089581E008950F931F93CF93DF9305
:1008D000109256021092570210925802109259022A
:1008E000C8E0D0E0B5DF81114DC02197D9F7C6E04F
:1008F000D0E0AEDF813009F045C02197D1F7A8DF05
:10090000811140C0A5DF813009F03CC0CFE0D0E0CC
:1009100001E010E09DDF8130F9F4C8010C2E02C027
:10092000880F991F0A94E2F7092E000CAA0BBB0B43
:1009300040915602509157026091580270915902AD
:10094000842B952BA62BB72B80935602909357029E
:10095000A0935802B09359022197E0F68091560275
:1009600090915702A0915802B0915902AA27BB2733
:10097000A350BF4F8093560290935702A093580202
:10098000B0935902DF91CF911F910F910895CF93AA
:10099000DF9380934E061092850010928400C4E885
:1009A000D0E012C0888199818B31964068F080E058
:1009B0009FEFA0E0B0E08093560290935702A0937F
:1009C0005802B093590251C080914E060E944A2CA1
:1009D0008111E8CF109285001092840080914E061C
:1009E0000E944A2C8823D1F3E4E8F0E080819181D1
:1009F00090935F0280935E021182108280915E026A
:100A000090915F028C589109049778F580914E0679
:100A10000E944A2C8111FACFE4E8F0E080819181B4
:100A200090935F0280935E021182108280915E0239
:100A300090915F029C01245431092530310510F456
:100A400043DF13C08297039780F480914E060E9483
:100A50004A2C8823D1F3E4E8F0E0808191819093DF
:100A60005F0280935E0211821082DF91CF91089520
:100A70008F929F92AF92BF92CF92DF92EF92FF92AE
:100A80001F93CF93DF936C01162F0E94D2204B014E
:100A90005C01CAE5D2E00D2C000CEE08FF0861E015
:100AA000812F0E941B2C888199810E943A2160E04D
:100AB000812F0E941B2C888199810E943A210E94DB
:100AC000D220DC01CB0188199909AA09BB098C1530
:100AD0009D05AE05BF0518F3DF91CF911F91FF90E3
:100AE000EF90DF90CF90BF90AF909F908F90089540
:100AF0008F929F92AF92BF92CF92DF92EF92FF922E
:100B00006C01F62E0E94D2204B015C0160E08F2D1B
:100B10000E941B2C0D2C000CEE08FF080E94D22016
:100B2000DC01CB0188199909AA09BB098C159D051F
:100B3000AE05BF0598F3FF90EF90DF90CF90BF9088
:100B4000AF909F908F900895E62FF0E0E15CFE4F0C
:100B5000E0819E2F977041E050E09A0102C0220F81
:100B6000331F9A95E2F7F0E0F695E795F695E7954D
:100B7000F695E795BF01660F771FE60FF71FB09652
:100B8000922F90953281932392839181292B2183F7
:100B9000682F70E0CA010E942033072E000C880BDA
:100BA000990B0E94573120E030E04AE754E40E945C
:100BB000453220E030E040EC50E40E9454300E9486
:100BC000243160935A0270935B0280935C0290938D
:100BD0005D020895AF92BF92CF92DF92EF92FF92A3
:100BE0001F93CF93DF936B017C01142F5901642F66
:100BF00086E2AADF612F88E293E23ADF612F84E97F
:100C000091E176DF1A141B04ECF4C0E0D0E0FF2081
:100C10004CF4612F80E392E02BDF612F80E496E0BB
:100C200067DF08C0612F80E392E022DF612F80E35D
:100C300092E05EDFCC0CDD1CEE1CFF1C2196AC1696
:100C4000BD0629F7612F80E392E012DF612F80E07B
:100C500090E04EDFDF91CF911F91FF90EF90DF90FA
:100C6000CF90BF90AF900895AF92BF92CF92DF9296
:100C7000EF92FF920F931F93CF93DF936C01C62FD8
:100C8000D0E0FE01EE0FFF1FE658FD4F80819181FD
:100C9000009749F00E94DD34FE01EE0FFF1FE65879
:100CA000FD4F11821082FE01EE0FFF1FE05AFD4F33
:100CB00080819181009749F00E94DD34FE01EE0FA2
:100CC000FF1FE05AFD4F11821082909128068091FB
:100CD0004406981719F084E090E002C083E090E0A9
:100CE0008C9D80018D9D100D9C9D100D11241093E5
:100CF0002A0600932906C8010E9445347C01FE01A2
:100D0000EE0FFF1FE658FD4F91838083892BF9F08A
:100D1000C8010E9445345C01FE01EE0FFF1FE05A3E
:100D2000FD4F91838083892B91F0A80160E070E0F2
:100D3000C7010E946635A80160E070E0C5010E940D
:100D40006635D0924D06C0924C0681E01BC0C701AB
:100D50000E94DD34CC0FDD1FFE01E658FD4F1182ED
:100D60001082C05ADD4F888199810E94DD3419823A
:100D7000188210922A061092290610924D0610929F
:100D80004C0680E0DF91CF911F910F91FF90EF9083
:100D9000DF90CF90BF90AF90089541E0209128065A
:100DA00090914406291340E0382F329536953695B8
:100DB000337030932806982F92959F70937090937C
:100DC0004406282F2695269523702093310683709C
:100DD0008093400681E080934306E62FF0E0EE0F1B
:100DE000FF1FE658FD4F0190F081E02DEF2B49F0F9
:100DF000391380E0481729F080914C0690914D06F8
:100E000033CF0895662321F1E82FF0E0ED5AFE4F2D
:100E1000E0812E2F277081E090E002C0880F991F9B
:100E20002A95E2F7F0E0F695E795F695E795F695C1
:100E3000E7959F01220F331FE20FF31FB096982F03
:100E400090952281922392839181892B81830895A9
:100E5000E82FF0E0ED5AFE4F8081E82FF0E0F695A4
:100E6000E795F695E795F695E7959F01220F331FD5
:100E7000E20FF31FB096282F277081E090E002C0A8
:100E8000880F991F2A95E2F7809591819823918385
:100E900092818923828308950F931F93CF93C82F44
:100EA000809172048F3F99F0809146068C130FC099
:100EB00080914706909148068617970741F48091E4
:100EC0004906841304C080914A06821719F1822FC3
:100ED0008B01E6E4F6E0C08372836183438324835D
:100EE00040933F066C2F59DF6C2FC801BDDEC82F21
:100EF000882371F08091720488233CF061E082DFE6
:100F000060E0809172040E941B2C81E080933A067D
:100F10008C2F00C0CF911F910F910895CF93C82FB0
:100F200080913A06882331F080917204882314F06E
:100F300060E068DFC093720480913A06882339F03C
:100F400061E08C2F5FDF60E08C2F0E941B2C8C2FC8
:100F500090E0FC01E45DFD4FE081F0E0EE0FFF1F4B
:100F6000E25EFD4F2081318130934206209341069D
:100F7000FC01E450FE4F80818093E105CF910895FC
:100F80002F923F924F925F926F927F928F929F9299
:100F9000AF92BF92CF92DF92EF92FF920F931F9387
:100FA000CF93DF93CDB7DEB72C970FB6F894DEBFA3
:100FB0000FBECDBF222E332E4C875B875E2C4F2C6D
:100FC00028E631E040E050E00E9433336B017C01C1
:100FD000662E7D2CE982FA82852C942CA02EB12ECF
:100FE00024E682169104A104B10438F00F2EF3E632
:100FF0008F2E912CA12CB12CF02DD501C401C297BC
:10100000A109B048880F991F99231CF491958195E7
:10101000910924E630E0281B390B032E000C440B09
:10102000550B622D732D8C859B856436710581056A
:10103000910520F063E670E080E090E00E94F132DC
:10104000982F872F762F662720E137E240E050E087
:101050000E94333319012A01662D772D89819A81E7
:101060002CE330E040E050E00E9433332A832983B0
:101070003CE3239FC0011124092E000CAA0BBB0BDB
:10108000A7019601281B390B4A0B5B0B942F832F6A
:10109000722F66272CE330E040E050E00E943333AB
:1010A0006A816170862F90E0982F88279A95280F83
:1010B000391F33231CF4319521953109C901330FB0
:1010C000AA0BBB0B40E051E060E070E09A01AB017D
:1010D000281B390B4A0B5B0BC201B1010E94F13294
:1010E000C72ED82EE92EFF2489818823B9F08130BC
:1010F000F1F0823039F1833081F18430B9F18530FB
:1011000009F03FC0CF82D886E986FA862B823C82DE
:101110004D825E82C12CD12C760133C02B823C8261
:101120004D825E821F82188619861A862AC0CB825B
:10113000DC82ED82FE82720161011F8218861986AF
:101140001A861FC0CF82D886E986FA8672016101AD
:101150001B821C821D821E8214C02F823886498603
:101160005A861B821C821D821E820BC02F823886EB
:1011700049865A86CB82DC82ED82FE82C12CD12C3C
:101180007601D501C401880F991FAA1FBB1F6627CE
:10119000782F892F9A2F24E630E040E050E00E941B
:1011A0003333DA01C90182199309A409B5098C0105
:1011B0009D0136952795179507958B819C81AD816B
:1011C000BE81800F911FA21FB31F9927AA27BB279B
:1011D000DC0199278827C00ED11EE21EF31EFE2CCB
:1011E000ED2CDC2CCC24EE24FF248C299D29AE2967
:1011F000BF294F81588569857A85400F511F621F2D
:10120000731FBC01CD01642B2C960FB6F894DEBF82
:101210000FBECDBFDF91CF911F910F91FF90EF9047
:10122000DF90CF90BF90AF909F908F907F906F9006
:101230005F904F903F902F90089520914C063091F1
:101240004D066217730708F060C090912806409120
:10125000440694132BC0E82FF0E0EE0FFF1FE05A76
:10126000FD4F9B01220F331F620F731F20813181BD
:10127000260F371F80913106F901E80FF11D4081DB
:10128000F901E90FF11D6081862F90E0A0E0B0E048
:10129000DC0199278827942B40914006F901E40F3F
:1012A000F11D2081BC01CD01622B0895E82FF0E0F3
:1012B000EE0FFF1FE658FD4F660F771F660F771F73
:1012C00020813181260F371FF901E90FF11D50816F
:1012D000F901E40FF11D6081862F90E0A0E0B0E0FD
:1012E000DC0199278827B52B40914006F901E40FCE
:1012F000F11D4081842B40913106F901E40FF11D6D
:101300002081BC01CD01722B089560E070E0CB011B
:1013100008951F93CF93DF93CDB7DEB729970FB60C
:10132000F894DEBF0FBECDBF182FF8DD80912906DF
:1013300090912A069A838983E12FF0E0EE0FFF1F38
:10134000E658FD4F0190F081E02DDF01119680817C
:101350008B8380914306882309F43CC0E0914106C9
:10136000F091420690818091E105982B9C839081B9
:10137000809589238D838D81898788E08887F8947B
:101380005C816D81E0914106F09142064B81388588
:10139000298589819A81508347FD252F3A9520839D
:1013A000262F39F0441F00C000006083000000C0F9
:1013B000F2CF38E04D9160830000019761F7F09320
:1013C0004206E09341064B83388729879A838983B5
:1013D000789440C0E0914106F0914206908180915E
:1013E000E105982B9C839081809589238D838D8145
:1013F0008F8388E08E835C816D814B813E812F815C
:1014000089819A81508347FD252F00C000C0208329
:1014100000C000C000C000C000C060830000262FD4
:101420003A9541F0441F000000C000C000C000C059
:1014300000C0E8CF38E04D9100C0608300C0019744
:1014400009F7F0934206E09341064B833E832F83D6
:101450009A83898329960FB6F894DEBF0FBECDBF5D
:10146000DF91CF911F910895CF93DF9360933F0653
:1014700020914C0630914D06232B09F44DC0282FA6
:1014800030E0220F331FF901E658FD4F6081718172
:10149000F901E05AFD4F40815181E0E0F0E02091F8
:1014A000440630E0DB01A20FB31FEA01C20FD31FD5
:1014B000988120913F06929F900111243C932091A6
:1014C000310630E0DB01A20FB31FEA01C20FD31FC8
:1014D000988120913F06929F900111243C93209186
:1014E000400630E0DB01A20FB31FEA01C20FD31F99
:1014F000988120913F06929F900111243C93319650
:101500006D5F7F4F4D5F5F4F20914C0630914D06D0
:10151000E217F30720F2FDDEDF91CF9108952F92BD
:101520003F924F925F926F927F928F929F92AF9273
:10153000BF92CF92DF92EF92FF920F93CF93DF9300
:10154000E0914C06F0914D066E177F0708F09BC0A6
:101550004A01AA24BB24432E542E652E7724909151
:101560002806E09144069E131BC0E82FF0E0DB0143
:10157000AA0FBB1FA60FB71FBF01660F771FFB0186
:10158000E658FD4F0190F081E02D1F012A0E3B1E11
:10159000FB01E05AFD4F608171816A0F7B1F3CC0E7
:1015A000E82FF0E0DB01AA0FBB1FAA0FBB1FBF0192
:1015B000660F771FFB01E658FD4F0190F081E02D8B
:1015C0001F012A0E3B1EFB01E05AFD4F6081718115
:1015D0006A0F7B1FC52EDD24EE24FF24D101A90F45
:1015E000B11DE0913F06EE2329F0CE9EF0011124BB
:1015F0009F2F01C09C2D9C9390912806FB01E90F21
:10160000F11D90913F06992329F0C99ED001112424
:101610009B2F01C09C2D908390914406FB01E90F04
:10162000F11D808290913106FB01E90FF11D40828E
:1016300090914006FB01E90FF11D208390913F0638
:10164000C92FD0E08C9EB0018D9E700D11244C9E50
:10165000F0014D9EF00D11242C9FD0012D9FB00D57
:10166000112490914406E101C90FD11D7883909116
:101670003106E101C90FD11DF88390914006F101B7
:10168000E90FF11DB083011144DEDF91CF910F917D
:10169000FF90EF90DF90CF90BF90AF909F908F9092
:1016A0007F906F905F904F903F902F9008958F9212
:1016B0009F92AF92BF92DF92EF92FF920F931F9390
:1016C000CF93DF93D82E48015901772314F0552387
:1016D00044F440914C0650914D064150510960E050
:1016E00070E0461757072CF4962F872FBA01492F21
:1016F000582F80914C0690914D06009721F1772349
:1017000014F460E070E0EB018617970708F4EC0131
:101710007A01552314F4E12CF12C8E159F0508F461
:101720007C018FEFE81AF80ACE15DF0550F400E0CF
:10173000A5019401BE018D2DF2DE2196CE15DF05A7
:10174000B0F38D2DE6DDDF91CF911F910F91FF90CA
:10175000EF90DF90BF90AF909F908F9008951F9370
:10176000CF93DF9320914C0630914D06232B01F14E
:10177000182FC82FD0E0CC0FDD1FFE01E658FD4F1B
:101780004091290650912A0660E070E080819181A5
:101790000E946635C05ADD4F4091290650912A06B5
:1017A00060E070E0888199810E946635812FB1DD0B
:1017B000DF91CF911F9108952F923F924F925F92A8
:1017C0006F927F928F929F92AF92BF92CF92DF9251
:1017D000EF92FF920F931F93CF93DF93CDB7DEB7B6
:1017E00027970FB6F894DEBF0FBECDBF89832801BF
:1017F0003901CA82DB82EC82FD824617570728F442
:10180000962F872FBA01492F582F80914C0690911F
:101810004D06009709F4DEC07F836E838617970715
:1018200010F49F838E831A018417950708F41C0116
:10183000F10131962E813F81E21BF30B4A815B81DE
:1018400048595E4F441955099A01A3E8BDE20E9428
:1018500077330024880F991F001C880F991F001CE4
:10186000892F902D68E671E0869F9001879F300D4B
:10187000969F300D1124421B530B24E6249FC00178
:10188000259F900D1124BF010E940C336B014B0169
:101890003197B9F4460E571EB20180E090E012E392
:1018A000E12EF12C00E010E024E630E040E050E0D2
:1018B00067DB9B01AC0100E06E817F8189812FDEB7
:1018C00087C012E3E12EF12C00E010E024E630E0C6
:1018D00040E050E0C301B20153DB9B01AC0100E0EA
:1018E0006E817F8189811BDE6E817F816F5F7F4F7B
:1018F0007F836E836215730508F056C024E6249D2D
:10190000C001259D900D1124C69E5001C79EB00CAC
:10191000D69EB00C1124A80EB91E0F2EF0E1CF2ECA
:10192000F7E2DF2EF02D96012858334136952795A2
:1019300036952795ABE7B4E10E9477339695879566
:101940007C0100E010E096013695279536952795A5
:101950000E947733969587952C01612C712C950107
:1019600036952795369527950E94773396958795D6
:10197000BC0168597E4F80E090E0A301920100DB3A
:101980009B01AC0100E06E817F818981C8DD8E8181
:101990009F8101969F838E83A80CB91C96016901D3
:1019A0008215930508F4BFCF12E3E12EF12C00E07D
:1019B00010E024E630E040E050E06A817B818C81D9
:1019C0009D81DEDA9B01AC0100E0B1018981A7DDD8
:1019D00089819FDC27960FB6F894DEBF0FBECDBF7E
:1019E000DF91CF911F910F91FF90EF90DF90CF90FB
:1019F000BF90AF909F908F907F906F905F904F902F
:101A00003F902F900895AF92BF92CF92DF92EF92C6
:101A1000FF920F931F93CF93DF93662309F46CC05B
:101A2000C0914C06D0914D06209709F465C0182F3F
:101A3000C62E062E000CDD08CC15DD0510F48FDE59
:101A40005BC016167CF0062E000C770B77231CF477
:101A50007195619571095B017E01E61AF70AC12C47
:101A6000D12C27C02197E62E660FFF08CE15DF0583
:101A70007CF0BE016C197D09812FDFDB9B01AC017D
:101A800000E0BE01812F4BDD2197CE15DF058CF7DD
:101A90001E141F047CF5C0E0D0E000E020E030E040
:101AA000A901BE01812F3BDD2196CE15DF05A9F7E7
:101AB00021C0B5016C0D7D1D812FBFDB9B01AC01E9
:101AC00000E0B601812F2BDD8FEFC81AD80AEC1485
:101AD000FD0478F7EC16FD0668F400E020E030E045
:101AE000A901B701812F1BDD8FEFE81AF80AEC1668
:101AF000FD0698F3812F0DDCDF91CF911F910F919F
:101B0000FF90EF90DF90CF90BF90AF9008952F920D
:101B10003F925F926F927F928F929F92AF92BF920D
:101B2000CF92DF92EF92FF920F931F93CF93DF93A9
:101B300000D0CDB7DEB7582E6DB67EB6662309F459
:101B4000F3C0E0904C06F0904D06E114F10409F466
:101B5000EBC0862F660F990BB7010E940C33181645
:101B60000CF05EC02DB63EB6C82E880FDD084601CB
:101B7000C601880F991F880F991F2DB73EB7281BE4
:101B8000390B0FB6F8943EBF0FBE2DBF8DB79EB771
:101B900001969A8389831C141D040CF0B7C0870139
:101BA0000C191D095C01B801852D47DBF501619316
:101BB0007193819391935F010F5F1F4FE016F106C0
:101BC00091F79CC0B70168197909852D36DB9B0117
:101BD000AC0100E0B701852DA2DCF1E0EF1AF108BD
:101BE000EC14FD047CF71C141D04A4F4A980BA8035
:101BF000E12CF12CF50121913191419151915F013D
:101C000000E0B701852D8BDCFFEFEF1AFF0AEC1423
:101C1000FD0484F30FB6F8943EBE0FBE2DBE6BC01C
:101C20002DB63EB6082E000C990B99231CF4919505
:101C3000819591098C014C01880F991F880F991F7C
:101C40002DB73EB7281B390B0FB6F8943EBF0FBE19
:101C50002DBF8DB79EB701969A8389831016110602
:101C60000CF05CC05C01C12CD12CB601852DE5DAED
:101C7000F50161937193819391935F01FFEFCF1A07
:101C8000DF0A0C151D0589F749C0B4016C0D7D1DD7
:101C9000852DD3DA9B01AC0100E0B601852D3FDC38
:101CA0002FEFC21AD20AAC14BD0478F76501AE1446
:101CB000BF04E0F48E189F08A80CB91CAA0CBB1C2A
:101CC000AA0CBB1C89819A81A80EB91EF50121912D
:101CD0003191419151915F0100E0B601852D1FDCEA
:101CE000FFEFCF1ADF0ACE14DF0480F30FB6F894AB
:101CF0003EBE0FBE2DBE852D0CDB16C021E0E21AC4
:101D0000F108EC14FD040CF05DCF70CF31E0E31A64
:101D1000F108EC14FD040CF47DCF54CF5701A81842
:101D2000B908C12CD12CB1CF0FB6F8947EBE0FBE2E
:101D30006DBE0F900F90DF91CF911F910F91FF908B
:101D4000EF90DF90CF90BF90AF909F908F907F905B
:101D50006F905F903F902F9008952F923F924F92F7
:101D60005F926F927F928F929F92AF92BF92CF922B
:101D7000DF92EF92FF920F931F93CF93DF9300D0E8
:101D80001F92CDB7DEB789834617570728F4962FE1
:101D9000872FBA01492F582F80914C0690914D06FC
:101DA000009709F49AC07B836A838617970710F41B
:101DB0009B838A838417950708F4AC0110161106DB
:101DC00074F08981CCDC00E020E03FEF4FEF50E081
:101DD0006A817B818981A3DB89819BDA7EC07A015C
:101DE0006A817B81E61AF70A57017FEFA71AB70AC3
:101DF000A901332324F444275527421B530B4A9D42
:101E0000C0014B9D900D5A9D900D1124B8010E9468
:101E10000C334B01672B21F0A114B104F9F45BC022
:101E200082E0A816B10408F456C06A817B816F5F16
:101E30007F4F7B836A83E60EF71E00E020E030E0F0
:101E4000A9016A817B8189816ADB8A819B810196F4
:101E50009B838A83E816F90681F73DC0C12CD12CFB
:101E6000612C712C212C312C21012A9468147904C5
:101E7000D8F4C601B7010E940C339B013327C90176
:101E8000A0E0B0E09C0111270027D201C101861B10
:101E9000970BA109B109A9019801282B00E06A81DB
:101EA0007B8189813CDB08C000E020E030E0A901B3
:101EB0006A817B81898133DB7FEF671A770A8FEF35
:101EC000C80ED11C6A817B816F5F7F4F7B836A83E1
:101ED0006A147B0458F289811CDA0F900F900F90DE
:101EE000DF91CF911F910F91FF90EF90DF90CF90F6
:101EF000BF90AF909F908F907F906F905F904F902A
:101F00003F902F90089504C0615071098109910993
:101F10006115710581059105B9F708959F92AF92FA
:101F2000BF92CF92DF92EF92FF920F931F93CF93C6
:101F3000DF93EFE4F6E010821182128213821482A2
:101F4000FC01E65AF94F9080FC01E05AF94FC0813C
:101F500061E070E0892D0E94C22B60E0892D0E9413
:101F60001B2CCC23A1F1A12C0F2EF4E2BF2EF02DBF
:101F70000F2EF4EFCF2EF02DD12CE12CF12C00E020
:101F800010E02C2F30E040E050E060E070E080E0B6
:101F900090E00E9496330F2EF6E0AF2EF02DB12C7C
:101FA000C12C0E94E93329513C4F4F4F5F4F6F4F77
:101FB0007F4F8F4F9F4F0E94923120E030E04AE7E1
:101FC00054E40E94BC300E9429319DDF05C063E0CB
:101FD00070E080E090E097DF60E070E0892D0E9483
:101FE000C22B88E290E00E943A21C0E9D1E003C010
:101FF000219709F448C0892D0E944A2C8823C1F3F7
:1020000003C0219719F442C0C0E9D1E0892D0E9494
:102010004A2C8111F6CF08E2B12C10E803C02197B9
:1020200019F437C0C0E9D1E0892D0E944A2C8823D9
:10203000B1F30E94D2206B017C01C0E9D1E002C063
:10204000219751F1892D0E944A2C8111F9CF0E94CC
:10205000D220DC01CB018C199D09AE09BF098997FB
:10206000A105B10538F0EB2DF0E0E15BF94F80817F
:10207000812B8083169511F4B39410E8015091F6EA
:1020800080E090E00BC08EEF9FEF08C08EEF9FEFD7
:1020900005C08EEF9FEF02C08EEF9FEFDF91CF91D3
:1020A0001F910F91FF90EF90DF90CF90BF90AF9076
:1020B0009F90089510927306109272061092700607
:1020C00010926F06EFE6F6E088E696E01292E817C7
:1020D000F907E1F70895CF93C82F60E00E94020747
:1020E0008C2F90E0FC01E450FE4F2081209371067C
:1020F000FC01E45DFD4FE081F0E0EE0FFF1FE05FCB
:10210000FD4F808191819093670680936606D2DFB0
:10211000CF910895FF920F931F93CF93DF93D091A8
:1021200071060091660610916706F894F8018181A6
:10213000FD2EF0948F2181837894CCE702C0C150AA
:1021400041F182E090E00E943A21F80180818D23E4
:10215000B1F3F89482818F21828381818D2B8183D9
:10216000789480EE91E00E943A21F894F801818100
:10217000F822F18286E490E00E943A21F801808101
:10218000D823C1E009F0C0E078948AE991E00E9488
:102190003A218C2FDF91CF911F910F91FF900895DD
:1021A0000F931F93CF93DF9300917106C091660642
:1021B000D0916706F8948981802B89838A81102FBA
:1021C000109581238A8383E090E00E943A218981DF
:1021D000182319838AE090E00E943A21C8817894FC
:1021E00085E390E00E943A21C02381E009F480E079
:1021F000DF91CF911F910F9108950F931F93CF936C
:10220000DF93C8E0D0E000E011E0CADF8111012BCC
:10221000110F2197D1F7802FDF91CF911F910F914F
:1022200008951F93CF93DF9310917106C0916606B6
:10223000D091670680FF16C0F8948A81912F9095FF
:1022400089238A838981812B89838AE090E00E9497
:102250003A218A81182B1A83789487E390E00E94B0
:102260003A2115C0F8948A81912F909589238A8309
:102270008981812B898381E490E00E943A218A81BF
:10228000182B1A83789485E090E00E943A21DF9120
:10229000CF911F910895DF92EF92FF920F931F93BA
:1022A000CF93DF93F82ED62E08E010E0C1E0D1E006
:1022B000E12C8D2F9F2D9C2309F48E2DB2DFCC0FA6
:1022C00001501109B1F7D11013C0F894E0916606DE
:1022D000F091670691818091710680959823918392
:1022E000E0916606F0916706928189238283789453
:1022F000DF91CF911F910F91FF90EF90DF900895A4
:102300000F931F93CF93DF938C0160E085E5C3DFCC
:10231000E801085F1F4F60E08991BDDFC017D1075A
:10232000D1F7DF91CF911F910F910895BF92CF9276
:10233000DF92EF92FF920F931F93CF93DF93209141
:102340007206211160C0F92EE82EE4DE811107C06B
:1023500010927306109272061092700673C060E0BD
:1023600080EF99DFD1E010E0C12C01E0DD24D394AF
:10237000B12C16DFC82F14DFC13009F053C08130F3
:10238000E1F437C080917306081750F4E12FF0E0B4
:10239000E859F94F80818D23CD2D29F4CB2D03C031
:1023A000CD2D0813CB2DC11106C0093008F03DC05A
:1023B000009370063AC0C13049F4E12FF0E0E859CB
:1023C000F94F80818D2B8083CD2D09C0E12FF0E066
:1023D000E859F94F30812D2F2095232320838C2F0E
:1023E00020DF0F5FDD0F11F41F5FD1E0183008F41C
:1023F000C0CF013440F0C0927306C11018C081E014
:102400008093720614C01092730610927206109296
:10241000700680E017C081918D93E217F307D9F71A
:1024200081E010C0C813D2CFADCFC02ECFCF8091E6
:102430006806882341F3E8E6F6E0AE2DBF2D20E7DD
:1024400036E0E9CFDF91CF911F910F91FF90EF9090
:10245000DF90CF90BF9008952FEF260F662361F095
:10246000A82FB92F80E0ED91E827F0E0E058FD4F6C
:1024700084912150C0F7089580E00895AF92BF92F3
:10248000CF92DF92EF92FF920F931F93CF93DF9340
:10249000CDB7DEB764970FB6F894DEBF0FBECDBFE1
:1024A0008C01CE010D9642DF811102C003DE34C0E3
:1024B00067E0CE010D96D0DF9C8989132DC08D85F4
:1024C000803111F0883241F525DECE010D9618DFFE
:1024D00061E084E4E0DE1EDECE010D9611DF60E0F7
:1024E0008EEBD9DECE0101966C015E019AE0A90E59
:1024F000B11C760182DED7018D937D01AA15BB0543
:10250000C9F7D8DDF801075F1F4FD6018D916D0126
:102510008193E017F107C9F764960FB6F894DEBF10
:102520000FBECDBFDF91CF911F910F91FF90EF9024
:10253000DF90CF90BF90AF900895CF93DF938093BB
:10254000EE02909114019F5F943618F49093140159
:1025500002C010921401C0911401D0E00E947B2CA3
:10256000CC0FDD1FC950DD4F99838883E0911401A2
:10257000F0E0EE0FFF1FE950FD4F80819181DF9168
:10258000CF910895482F50E020E030E0CA01821733
:10259000930724F4DA01AC59BF4F01C0DA012F5F71
:1025A0003F4F8217930724F4FA01ED59FF4F02C001
:1025B000FA013197AA0FBB1FA950BD4FEE0FFF1FA5
:1025C000E950FD4F0D90BC91A02D608171816A177B
:1025D0007B0790F44150510924303105C1F68091B8
:1025E0007406882329F081E08093740680E00895C2
:1025F00081E080937406089580E00895482F50E0AC
:1026000020E030E0CA018217930724F4DA01AC59C4
:10261000BF4F01C0DA012F5F3F4F8217930724F4A9
:10262000FA01ED59FF4F02C0FA013197AA0FBB1F03
:10263000A950BD4FEE0FFF1FE950FD4F0D90BC910B
:10264000A02D60817181A617B70738F44150510958
:1026500024303105C1F61092740608958F929F922E
:10266000AF92BF92CF92DF92EF92FF920F931F93A0
:10267000CF93DF93CDB7DEB7A8970FB6F894DEBF40
:102680000FBECDBF80911401B9DF809114017ADFB4
:10269000882309F4C0C00E945F2F6093F3027093F7
:1026A000F4028093F5029093F6020091EF021091EC
:1026B000F0022091F1023091F2026B017C01C01A0C
:1026C000D10AE20AF30A6093EF027093F00280935A
:1026D000F1029093F202E091ED0281E08E0F80937F
:1026E000ED02F0E0EE0FFF1FEE0FFF1FEB53FD4F6B
:1026F000C082D182E282F3828A3010F01092ED0221
:102700008091E9029091EA02A091EB02B091EC0273
:10271000892B8A2B8B2B09F478C0DE01119688E275
:10272000FD0111928A95E9F7E5ECF2E0DA2ECB2E65
:102730008DEE92E041915191619171914D935D9334
:102740006D937D93E817F907A9F79E012B5D3F4F25
:102750000F2EF9E0EF2EF12CF02D27C0ED2DFC2DE2
:1027600081909190A190B19040815181628173815B
:10277000481559056A057B0568F48F010450110955
:10278000D8014D935D936D937C93139780829182D2
:10279000A282B382E217F30719F7B1E0EB1AF1084E
:1027A00024503109E114F10421F01E141F04B4F285
:1027B000F4CF8D8D9E8DAF8DB8A14D855E856F85D3
:1027C0007889841B950BA60BB70B87399105A1055A
:1027D000B105F0F4FE013D96BE016F5D7F4F20E034
:1027E00030E0A90181919191A191B191280F391FF8
:1027F0004A1F5B1F6E177F07A9F760EE73E984E03D
:1028000090E00E943333C90108C080E090E005C029
:1028100080E090E002C080E090E0A8960FB6F894C7
:10282000DEBF0FBECDBFDF91CF911F910F91FF9003
:10283000EF90DF90CF90BF90AF909F908F900895D2
:102840008F929F92AF92BF92CF92DF92EF92FF92C0
:102850000F931F93CF93DF93CDB7DEB7A8970FB633
:10286000F894DEBF0FBECDBFE0911401EE2319F046
:102870008FEF8E0F01C083E6F0E0EE0FFF1FE950EF
:10288000FD4F20813181293E334008F4CBC0E82F31
:10289000F0E0EE0FFF1FE950FD4F808191814497DA
:1028A00008F0C3C00E945F2F6093F3027093F4029C
:1028B0008093F5029093F6020091EF021091F002DE
:1028C0002091F1023091F2026B017C01C01AD10A11
:1028D000E20AF30A6093EF027093F0028093F10230
:1028E0009093F202E091C40281E08E0F8093C402C3
:1028F000F0E0EE0FFF1FEE0FFF1FE456FD4FC0820A
:10290000D182E282F3828A3010F01092C402809168
:10291000C0029091C102A091C202B091C302892B62
:102920008A2B8B2B09F478C0DE01119688E2FD0119
:1029300011928A95E9F7ECE9F2E0DA2ECB2E84ECDD
:1029400092E041915191619171914D935D936D939D
:102950007D93E817F907A9F79E012B5D3F4F0F2ED6
:10296000F9E0EF2EF12CF02D27C0ED2DFC2D8190FC
:102970009190A190B19040815181628173814815FD
:1029800059056A057B0568F48F0104501109D801C7
:102990004D935D936D937C93139780829182A28275
:1029A000B382E217F30719F7B1E0EB1AF1082450EC
:1029B0003109E114F10421F01E141F04B4F2F4CF24
:1029C0008D8D9E8DAF8DB8A14D855E856F85788983
:1029D000841B950BA60BB70B89379105A105B10593
:1029E000F0F4FE013D96BE016F5D7F4F20E030E0C8
:1029F000A90181919191A191B191280F391F4A1F8D
:102A00005B1F6E177F07A9F760EE73E984E090E023
:102A10000E943333C9010BC080E090E008C080E021
:102A200090E005C080E090E002C080E090E0A896D1
:102A30000FB6F894DEBF0FBECDBFDF91CF911F91CF
:102A40000F91FF90EF90DF90CF90BF90AF909F904D
:102A50008F900895CF93C82F8091EE026EDDC13024
:102A600011F4EEDE01C0FADDCF9108958F929F92AE
:102A7000AF92BF92CF92DF92EF92FF920F931F938C
:102A8000CF93DF9300D01F92CDB7DEB706C061E0D1
:102A900070E080E090E00E94F820809178060E942B
:102AA0004A2C8111F4CFCE0101967C016E0192E097
:102AB000C91AD108812C912C5401839437C061E04C
:102AC000809175060E941B2C809178060E944A2CEA
:102AD000882379F0F7012281D501C401002E04C0BA
:102AE000880F991FAA1FBB1F0A94D2F7822B8283DB
:102AF0000FC0D501C401002E04C0880F991FAA1F62
:102B0000BB1F0A94D2F78095F701928189238283B3
:102B100060E0809175060E941B2C0150110978F627
:102B200021E0E21AF108CE14DF0419F007E010E00A
:102B3000C6CF61E0809175060E941B2C60E08091F9
:102B400075060E941B2C2B816A81862F90E0A0E0E5
:102B5000B0E0BA2FA92F982F8827A22B2981822B8A
:102B6000BC01CD0180580F900F900F90DF91CF9155
:102B70001F910F91FF90EF90DF90CF90BF90AF909B
:102B80009F908F900895CF92DF92EF92FF92CF9314
:102B9000C9E1C12CD12C760169DFC60ED71EE81E13
:102BA000F91EC150C9F7C701B60129E130E040E084
:102BB00050E00E945533CA01B901CF91FF90EF90C8
:102BC000DF90CF900895CF93DF93962FEA01809303
:102BD00078066093750661E070E0892F0E94C22B31
:102BE00060E070E0809178060E94C22B61E08091E5
:102BF00075060E941B2C84E690E00E943A2160E05A
:102C0000809175060E941B2CBEDFBDDF60937906A4
:102C100070937A0680937B0690937C06D093770618
:102C2000C0937606DF91CF910895CF92DF92EF9215
:102C3000FF9220917806FC012083A5DFC0907906E1
:102C4000D0907A06E0907B06F0907C066C197D09A6
:102C50008E099F090E9457316B017C0160917606B5
:102C60007091770680E090E00E9455319B01AC01A5
:102C7000C701B6010E94BC30FF90EF90DF90CF906B
:102C800008951F920F920FB60F9211242F933F9326
:102C90004F935F936F937F938F939F93AF93BF9364
:102CA000EF93FF938091C10388232CF41092850049
:102CB000109284002DC02091C103022E000C330B12
:102CC0008091150190E02817390714F58091C10310
:102CD000082E000C990BFC01EE0FFF1F8E0F9F1F9B
:102CE000FC01EE53FC4F808186FF12C08091C1032E
:102CF000082E000C990BFC01EE0FFF1F8E0F9F1F7B
:102D0000FC01EE53FC4F808160E08F730E941B2C0E
:102D10008091C1038F5F8093C1032091C103022E74
:102D2000000C330B8091150190E0281739070CF047
:102D300040C08091C1038C30E4F520918400309133
:102D400085008091C103082E000C990BFC01EE0F49
:102D5000FF1F8E0F9F1FFC01EE53FC4F818192815C
:102D6000820F931F90938900809388008091C10304
:102D7000082E000C990BFC01EE0FFF1F8E0F9F1FFA
:102D8000FC01EE53FC4F808186FF2EC08091C10371
:102D9000082E000C990BFC01EE0FFF1F8E0F9F1FDA
:102DA000FC01EE53FC4F808161E08F730E941B2C6D
:102DB0001BC08091840090918500049680349C49CA
:102DC00038F480E49CE9909389008093880009C0DE
:102DD000809184009091850004969093890080935F
:102DE00088008FEF8093C103FF91EF91BF91AF9166
:102DF0009F918F917F916F915F914F913F912F9113
:102E00000F900FBE0F901F901895EF92FF920F93A7
:102E10001F93CF93C82F7B018A0161E070E00E946D
:102E2000C22BE2ECF3E0CF738081807CC82BC0839F
:102E300020E232E02E193F09C90199230CF40396D0
:102E400095958795959587958093C00320E639E001
:102E5000201B310BC90199230CF403969595879596
:102E6000959587958093BF038091C20386FD1FC00F
:102E700081E090E0FC01EE0FFF1FE80FF91FEE5319
:102E8000FC4F208126FD13C001968C30910591F7EF
:102E90001092800082E08093810010928500109251
:102EA0008400B19AEFE6F0E0808182608083E2ECFA
:102EB000F3E080818064808380E0CF911F910F9147
:102EC000FF90EF900895AC018091C00328E830E0B6
:102ED000281B310987FD3395C901880F991F880F79
:102EE000991F481759078CF08091BF0328E532E0FD
:102EF000281B310987FD3395220F331F220F331F03
:102F0000CA01241735070CF4C9012FB7F8940297AA
:102F1000092E000CAA0BBB0B880F991FAA1FBB1F01
:102F20008E7FBF719093C4038093C3032FBF089516
:102F3000CF92DF92EF92FF92803222E092070CF064
:102F400040C0BC01992314F460E070E08091C0039C
:102F5000A8E8B0E06D01C81AD10887FDD394D60166
:102F6000AA0FBB1FAA0FBB1F6D01BB0FEE08FF0806
:102F70008091BF0328E532E0281B310987FD339596
:102F8000220F331F220F331FC901330FAA0BBB0BB4
:102F90009C01AD012C193D094E095F09DB01653B20
:102FA000710514F0A4EBB0E00E94903324EB30E004
:102FB00040E050E00E945533C20ED31EE41EF51EC1
:102FC000C60181DFFF90EF90DF90CF9008958CE0F5
:102FD0008093150180E090E028EB3BE0FC01EE0FD0
:102FE000FF1FE80FF91FEE53FC4F32832183019638
:102FF0008C30910599F708958F929F92AF92BF926E
:10300000CF92DF92EF92FF92CF93C82F69017A019E
:10301000232B242B252BE1F0AB0162E30E949F2C94
:103020000E945F2F4B015C010E945F2FDC01CB01EE
:1030300088199909AA09BB098C159D05AE05BF051C
:1030400098F340E050E062E38C2F0E949F2C06C072
:10305000F894AB0162E30E949F2C7894CF91FF908B
:10306000EF90DF90CF90BF90AF909F908F9008959A
:10307000CF93DF93EC01E091BF06F091C00630974B
:1030800001F19091EB038091EA039817D0F01616A6
:1030900017068CF420E030E090E0DE01A90FB11DAE
:1030A0004C91D901A158B94F4C939F5F292F30E023
:1030B0002617370794F3CB011092EB036093EA03D2
:1030C0000995DF91CF910895E0917D06F0917E06FC
:1030D000309729F01092E8031092E70309950895BC
:1030E0001092590481E0809357041092560461E0D5
:1030F00082E00E941B2C61E083E00E941B2CE9EB24
:10310000F0E080818E7F808380818D7F808388E462
:103110008093B80085E48093BC000895413208F0A4
:103120004CC0909159049111FCCF31E03093590477
:10313000209357042FEF2093EC0310923104240FB7
:10314000209330043093580420915804880F822B28
:103150008093580480915604813081F41092560473
:10316000ABEBB0E0ECEBF0E0809158048C93808105
:1031700083FDFACF85EC8093BC0003C085EE80937D
:10318000BC00809159048130E1F3809131048417AF
:1031900010F440913104442389F0E2E3F4E0A62FD7
:1031A000B72F2FEF240F30E02D5C3B4F81918D9393
:1031B000E217F307D9F7942F01C090E0892F089503
:1031C0000F93413208F057C0309159043111FCCFB0
:1031D00092E090935904009357049FEF9093EC036F
:1031E0001092310440933004442371F0FB01A2E3B8
:1031F000B4E0415050E04F5F5F4F640F751F9191F5
:103200009D93E617F707D9F7109258049091580448
:10321000880F892B8093580480915604813081F463
:1032200010925604ABEBB0E0ECEBF0E08091580468
:103230008C93808183FDFACF85EC8093BC0003C022
:1032400085EE8093BC00222341F0809159048230A6
:1032500021F4809159048230E1F38091EC038F3F97
:1032600079F08091EC03803241F08091EC0380335F
:1032700031F034E005C031E003C032E001C033E09A
:10328000832F0F91089540910E04262F30E0240FD4
:10329000311D21323105ECF4209159042430D9F448
:1032A000662381F0A82FB92F80E090E030910E04C2
:1032B0002D91FC01E05FFB4FE30FF11D2083019690
:1032C0008617A0F380910E04680F60930E0480E0CF
:1032D000089581E0089582E0089585ED8093BC0013
:1032E000ECEBF0E0808184FDFDCF1092590408954D
:1032F00085EC8093BC001092590408951F920F92A0
:103300000FB60F9211242F933F934F935F936F93B8
:103310007F938F939F93AF93BF93EF93FF9380918E
:10332000B900E82FE87F8E2F90E0893C910508F0E6
:10333000EDC0FC01EA5AFF4F0C94713380915804A0
:103340008093BB0085EC8093BC00E0C09091310479
:1033500080913004981780F4E091310481E08E0F61
:1033600080933104F0E0EE5CFB4F80818093BB00E2
:1033700085EC8093BC00CAC080915704882311F06B
:10338000ACDFC4C081E08093560484EA8093BC0023
:1033900010925904BBC080E28093EC039EDFB6C05C
:1033A00080E38093EC0399DFB1C088E38093EC0362
:1033B0009FDFACC0E091310481E08E0F8093310437
:1033C0008091BB00F0E0EE5CFB4F80839091310474
:1033D00080913004981720F485EC8093BC0096C04F
:1033E00085E88093BC0092C0E091310481E08E0FAB
:1033F000809331048091BB00F0E0EE5CFB4F808352
:1034000080915704882311F068DF80C081E08093A9
:10341000560484EA8093BC001092590477C05DDFA3
:1034200075C083E0809359041092ED0385EC80937E
:10343000BC006CC08091ED03803280F4E091ED031C
:1034400081E08E0F8093ED038091BB00F0E0E251AC
:10345000FC4F808385EC8093BC0058C085E8809346
:10346000BC0054C045DF8091ED03803230F4E09120
:10347000ED03F0E0E251FC4F10826091ED0370E04B
:10348000E0915204F09153048EEE93E0099510926E
:10349000ED033CC085E88093BC0038C084E0809395
:1034A000590410920F0410920E04E0915404F0910C
:1034B0005504099580910E04811105C081E0809327
:1034C0000E0410921004E0910F0481E08E0F80939F
:1034D0000F04F0E0E05FFB4F80818093BB00909190
:1034E0000F0480910E04981720F485EC8093BC00A3
:1034F0000DC085E88093BC0009C085EC8093BC00BA
:103500001092590403C01092EC03E7DEFF91EF9193
:10351000BF91AF919F918F917F916F915F914F91EB
:103520003F912F910F900FBE0F901F901895109202
:10353000EB031092EA031092E8031092E703D0DD48
:1035400084E698E1909355048093540488E398E1CD
:1035500090935304809352040895462F613208F0EB
:1035600040E221E06FE776E0D9DD1092EB03809333
:10357000EA03089591E09093E6038093E9031092A3
:10358000E8031092E70308950F93CF93C82F0C2FF1
:1035900021E04091E7036FE976E08091E90310DED6
:1035A0009091E703992311F08111F1CF1092E80374
:1035B0001092E7031092E603CF910F910895CF93F5
:1035C000DF931F92CDB7DEB789838091E60388230E
:1035D000A1F08091E7038032B8F48091E803E82FEE
:1035E000F0E0E156F94F998190838F5F8093E80373
:1035F0008093E70381E090E009C061E0CE0101968D
:1036000042DE81E090E002C080E090E00F90DF9128
:10361000CF9108958091EA0390E02091EB03821B03
:10362000910908959091EB038091EA03981750F463
:10363000E92FF0E0E158F94F208130E09F5F90934F
:10364000EB0302C02FEF3FEFC90108958F929F92C5
:10365000AF92BF92CF92DF92EF92FF92CF93DF9320
:1036600090E0FC01E152F94FD081FC01EF53F94F9A
:10367000C081880F991F880F991FFC01E953F94FEA
:10368000C080D180E280F3802D2F277081E090E010
:10369000AC0102C0440F551F2A95E2F79A01ED2FA5
:1036A000F0E0F695E795F695E795F695E795AF0185
:1036B000440F551FE40FF51FB096322F309542810D
:1036C000342332833181232B2183EC2FF0E0F695D4
:1036D000E795F695E795F695E7959F01220F331F3D
:1036E000E20FF31FB0962C2F277002C0880F991F8E
:1036F0002A95E2F78095918198239183928189237D
:10370000828360E08D2F0E941B2C82E090E0B2D576
:1037100061E08D2F0E941B2C8AE090E0ABD560E029
:103720008D2F0E941B2C3ED54B015C018C2F0E94DB
:103730004A2C81110CC036D5DC01CB0188199909BE
:10374000AA09BB09C816D906EA06FB0678F72AD5E6
:103750004B015C018C2F0E944A2C882361F022D5FA
:10376000DC01CB0188199909AA09BB09C816D90639
:10377000EA06FB0678F716D5681979098A099B09C4
:1037800028E330E040E050E00E943333C901DF918C
:10379000CF91FF90EF90DF90CF90BF90AF909F9030
:1037A0008F900895409167045091680420916504BA
:1037B0003091660442175307BCF4E8EEF0E09081C4
:1037C0009570E9F39091E80092FD19C08093F100A3
:1037D000809167049091680401968F739927892BD3
:1037E00019F48EEF8093E80080916704909168044B
:1037F0000196909368048093670481E0089580E0C7
:103800000895CF92DF92EF92FF920F931F93CF9381
:10381000DF936C01C62FD42F862F880F8E5FC2DFF7
:1038200083E0C0DFD078CC23E1F08601C150EC2EDC
:10383000F12C8FEFE81AF80AEC0CFD1CDD2319F0CF
:10384000F801849102C0F8018081ACDFC82F80E0CC
:10385000A9DF8C2339F00F5F1F4F0E151F0571F77D
:1038600001C081E0DF91CF911F910F91FF90EF9008
:10387000DF90CF9008959093CD008093CC0088E1A5
:103880008093C9008EE08093CA0008959FB79093FB
:10389000E706F89487708093E90008958091E70621
:1038A0008FBF0895CF93F2DF8091E800C82FC072D8
:1038B00085FD02C0F3DF05C0F1DF8091F200C0E4B6
:1038C000C81B8C2FCF9108952F923F924F925F92F9
:1038D0006F927F928F929F92AF92BF92CF92DF9220
:1038E000EF92FF920F931F93CF93DF9300D01F921D
:1038F000CDB7DEB78B834B01742E252E80916B04E0
:10390000882309F49CC08091690480FF05C0E0EE23
:10391000F0E0808182608083072D122DC12C0F2E54
:10392000FAEFDF2EF02D0F2EF8EEAF2EB12CF02D8A
:103930002B812072622E8B81807489830F2EFAE393
:103940005F2EF02D33243394412C0F2EF1EFEF2E08
:10395000F12CF02D6BC08B81A5DF8A83811108C00B
:10396000DA94DD2009F46EC081E090E041D45EC0BD
:10397000AA818A2F90E0081719070CF40A838B811B
:1039800085DFF501808185FF51C0FA810F1B110988
:10399000662049F08F2F8150FF2371F1D7011C92CF
:1039A0008150E0F729C0BB81BB2334F02A8121502C
:1039B000EA81E11115C020C02A812150FA81FF233C
:1039C000D9F0F401822F9491D7019C9381503196C4
:1039D0008F3FC9F7822F90E00196880E991E0CC088
:1039E000F401822F9191D7019C938150D8F7822FB7
:1039F00090E00196880E991ECC2021F0F5015082AE
:103A0000C42C13C0D5018C9185FD07C05C92C32CDA
:103A10000115110551F0C42C08C00115110529F438
:103A2000B981BB2311F0F501508238DF0115110572
:103A300009F091CFC1108FCF872D922D05C08FEF48
:103A40009FEF02C08FEF9FEF0F900F900F90DF91CD
:103A5000CF911F910F91FF90EF90DF90CF90BF908B
:103A6000AF909F908F907F906F905F904F903F901E
:103A70002F9008951092E900109268041092670444
:103A800090936604809365040895CF92DF92FF922D
:103A90000F931F93CF93DF936A018078F82E8B01E9
:103AA000040F151FEB010AC0FF2019F0FE018491DD
:103AB00001C0888177DE2196882331F0C017D107B5
:103AC00099F78C2D9D2D02C08FEF9FEFDF91CF9145
:103AD0001F910F91FF90DF90CF900895EF92FF928A
:103AE0000F931F93CF93DF937C016115710511F143
:103AF000AB01A8EEB0E0C1EFD0E08BEF8A0141341A
:103B0000510514F000E410E09C9192FFFDCFFB0101
:103B1000E41BF50BEE0DFF1D9FEF900F002331F01E
:103B200028812083915031969F3FD1F78C93401B81
:103B3000510B21F7CB01DF91CF911F910F91FF9096
:103B4000EF9008951F920F920FB60F921124EF92EB
:103B5000FF920F931F932F933F934F935F936F9316
:103B60007F938F939F93AF93BF93EF93FF93CF93E5
:103B7000DF93CDB7DEB76297DEBFCDBF1092E9000D
:103B80008091E80083FF20C1FE013196A1EFB0E0F3
:103B90009E01275F3F4F8C9180833196E217F30798
:103BA000D1F782EF8093E8009981992334F4E8EE0D
:103BB000F0E0808180FFFDCF03C08EEF8093E800AE
:103BC000892F807609F0B6C08A8181110EC09038A5
:103BD00039F480916A04E1EFF0E080831082C6C07E
:103BE000E1EFF0E010821082C1C01B810C81212F17
:103BF00030E0302B813061F49111B8C021303105B3
:103C000009F0B4C080916A048D7F80936A04AEC0CD
:103C1000833061F49111AAC02130310509F0A6C0AA
:103C200080916A04826080936A04A0C0853049F460
:103C3000E8EEF0E0808180FFFDCF10681093E30094
:103C400095C0863009F04BC0EF80F884023059F5FA
:103C500080E090E00FDF1986CE0109960E94B00245
:103C6000298589E0898782E08A878091670490911D
:103C7000680409969C878B872D8781E08E871F8635
:103C800080EA888B8AEF898BC701F4DE49E050E037
:103C9000BE01675F7F4F80E0F8DE1A8ACE01429650
:103CA0000E94B00263C0C701E5DE013009F466C0BE
:103CB000033009F05FC0112309F463C0123031F4FE
:103CC00040E860E18EE993E09CDD4EC0113009F0E0
:103CD00051C040E86BE082E993E093DD45C0873056
:103CE00009F448C0883021F481E08093F1003EC09F
:103CF0008930E1F5937009F03DC080911701811181
:103D000048C010C0D7018C93DB013C939191DA013C
:103D10009C93ADEEB0E02C938F5F873019F09081CB
:103D20009111F0CFEAEEF0E08EE7808310821093DD
:103D30006B041CC08F8198859DDE88E0FE01319662
:103D4000DE01199601900D928A95E1F76D817E81D1
:103D5000611110C06D877E8729853A854B855C850A
:103D60008F8598890E94C602882321F08EEF809368
:103D7000E8002AC081E28093EB0026C060E873E08F
:103D800002C06FEA73E0FB01449150E080E87DDE01
:103D9000EDCF81E08093E9008093EB0080911701E3
:103DA0008093EC0086E38093ED00E8E1F1E082E0AF
:103DB0000F2EF9EEEF2EF12CF02D6BEE70E031E0CE
:103DC0004CEE50E026E3ABCF62960FB6F894DEBF20
:103DD0000FBECDBFDF91CF91FF91EF91BF91AF911A
:103DE0009F918F917F916F915F914F913F912F9113
:103DF0001F910F91FF90EF900F900FBE0F901F90AB
:103E000018958093E9008091F200882319F08AE3E5
:103E10008093E80008951F920F920FB60F9211241D
:103E20002F933F934F935F936F937F938F939F93C2
:103E3000AF93BF93CF93EF93FF93E1EEF0E0C08198
:103E40008081837F8083C3FF0FC01092E90081E0EF
:103E50008093EB001092EC0082E38093ED001092CF
:103E60006B0488E08093F000C2FF02C083E0C9DFEA
:103E7000C4FF12C0E2EEF0E080818E7E816080831C
:103E8000E1EEF0E080818F7E8083809169048E7EF8
:103E900080618093690413C0C0FF11C0E2EEF0E0BE
:103EA00080818E7E80618083E1EEF0E080818E7E75
:103EB0008083809169048E7E816080936904FF9184
:103EC000EF91CF91BF91AF919F918F917F916F9122
:103ED0005F914F913F912F910F900FBE0F901F90C8
:103EE000189581E08093D70080EA8093D80082E122
:103EF00089BD09B400FEFDCF80E98093D8001092FF
:103F0000E00010926B048CE08093E20078940895B6
:103F100080916B0408952FB7F89480916B04811100
:103F200004C02FBF8FEF9FEF089582E08093E900D8
:103F30008091E80085FD12C082FD04C00BC082FDA7
:103F400004C008C0E8EEF0E09BE69083808185FF26
:103F5000F6CF04C02FBF8FEF9FEF08958091F1003F
:103F60009091E80095FD03C09BE69093E8002FBF79
:103F700090E0089508958091C000881F8827881FC9
:103F800008950C94920308958091C6000895AF920D
:103F9000BF92CF92DF92EF92FF920F931F93CF9336
:103FA000DF93E82EF12CEE0CFF1CEE0CFF1CEE0C48
:103FB000FF1C182F110F110F110FC0E0D0E000E00F
:103FC00022E0E21AF108C62ED12CAA24A394B12C27
:103FD000C7018C0F9D1F4297B0F4C6010C2E02C082
:103FE000959587950A94E2F780FF0DC0812F0E9476
:103FF0004A2C882341F0C5010C2E02C0880F991F5E
:104000000A94E2F7082B21961F5FC830D10501F70B
:10401000802FDF91CF911F910F91FF90EF90DF9054
:10402000CF90BF90AF9008955F926F927F928F92E2
:104030009F92AF92BF92CF92DF92EF92FF920F9337
:104040001F93CF93DF938A01FB015080452B09F02A
:104050004FC00FEF1FEF4CC06701F70181917F0147
:1040600090E00C2E02C0880F991F0A94E2F7852970
:104070008F7787DF2FEF821A920AF601808190E016
:1040800095012C1B3D0B02C0959587952A95E2F76B
:10409000582E2196C730D105A0F080169106C0F5A4
:1040A000852D8F776EDFFFEF8F1A9F0A551C5524E1
:1040B000551C2797C730D10520F08016910680F354
:1040C00027C0E614F70421F08016910628F223C0D9
:1040D000209709F180169106F0F481E090E002C08B
:1040E000880F991FCA95E2F7815085214ADF13C0D6
:1040F000009789F07B013B01680E791EC0E0D0E09B
:10410000812C912C0F2EF7E0AF2EB12CF02DA4CFE7
:10411000E614F704E9F2DF91CF911F910F91FF9020
:10412000EF90DF90CF90BF90AF909F908F907F9057
:104130006F905F900895EF92FF920F931F93CF932C
:10414000DF93C82F162F7A0180EF1BDF8C2F19DF2A
:10415000112391F0E7011150012F10E00F5F1F4F65
:104160000E0D1F1D40E050E0BE0181E090E05CDFDD
:104170002196C017D107B1F787EF03DFDF91CF9109
:104180001F910F91FF90EF900895FC010190002086
:10419000E9F73197BF01681B790BAC0181E7CBCF01
:1041A000089508953FB7F8948091BB059091BC05A0
:1041B000A091BD05B091BE0526B5A89B05C02F3FB7
:1041C00019F00196A11DB11D3FBFBA2FA92F982F3D
:1041D0008827820F911DA11DB11DBC01CD01660F65
:1041E000771F881F991F660F771F881F991F0895D3
:1041F0008F929F92AF92BF92CF92DF92EF92FF92F7
:104200006B017C01CFDF4B015C01C114D104E104DF
:10421000F10429F526C0C5DF10C021E0C21AD1087B
:10422000E108F10888EE880E83E0981EA11CB11CFD
:10423000C114D104E104F104A1F0B4DFDC01CB012D
:1042400088199909AA09BB09883E9340A105B105BF
:1042500020F7C114D104E104F104E9F602C0A1DFA2
:10426000ECCFFF90EF90DF90CF90BF90AF909F90FA
:104270008F9008958230910538F0880F991F880F2C
:10428000991F05970197F1F708951092A3071092CF
:104290007A07109279071092F0061092EF061092AA
:1042A00032071092EE0680E48093A40708950F93DE
:1042B0001F93CF93DF9300D000D0CDB7DEB78091AE
:1042C000E8068823E9F00BEE16E0F801608180E053
:1042D0005EDEF8011081182380913507181781F0F0
:1042E000812F90E09C838B8380E94BDE42E050E09D
:1042F000BE016D5F7F4F82E090E096DE1093350740
:104300008091E9068823E9F00BEE16E0F80161815F
:1043100081E03DDEF80111811823809136071817DE
:1043200081F0812F90E09A83898381E92ADE42E03F
:1043300050E0BE016F5F7F4F82E090E075DE10932A
:1043400036070F900F900F900F90DF91CF911F9134
:104350000F910895CF93DF9300D0CDB7DEB77A8366
:104360006983803170F46115704458F4806E09DE01
:1043700042E050E0BE016F5F7F4F82E090E054DE8C
:1043800006C08FEFFEDD8FEFFCDD8FEFFADD0F90C3
:104390000F90DF91CF9108950F931F93CF93DF93E9
:1043A00000D000D000D0CDB7DEB702EF10E014315E
:1043B00048F5063038F5812F0E94BC2B823011F56C
:1043C000202F30E080916F0490E0002E02C0959580
:1043D00087950A94E2F780FF15C086E0E8E2F1E0F5
:1043E000DE01119601900D928A95E1F7E1E0F0E08F
:1043F000EC0FFD1FE20FF31F80810E947B2CBC019C
:10440000802FA8DF1F5F0F5F143189F626960FB645
:10441000F894DEBF0FBECDBFDF91CF911F910F91FA
:104420000895CF92DF92FF920F931F93CF93DF9364
:10443000182FEB01F42E022F6F3F7F4F71F0812F69
:1044400099D88C2FBCD8802F9FD880916D049091E3
:104450006E04009721F00EDF02C0C0E0D0E06F2DA7
:10446000812F7BD8CF2CD12CD5D8C816D9060CF0EB
:10447000D1D8E1EFF6E01083C183CCD8892B89F045
:104480001C141D0474F4C3EFD6E00F2D10E00D5082
:10449000194FC8D88993BED8892B19F0C017D107F6
:1044A000C1F762E06F0D41EF56E087E744DEDF9130
:1044B000CF911F910F91FF90DF90CF900895CF93F0
:1044C00080E009C08151823028F466E070E08C2FD2
:1044D0000E94C22B8C2FC1E0C80FC43199F781E034
:1044E00080936C0424D8CF910895EF92FF921F938C
:1044F000CF93DF9380919802909199029C012F5F56
:104500003F4F309399022093980220919A02309164
:104510009B02281739070CF057C0809196029091A2
:104520009702892B09F450C08091950290E00E9477
:104530008E0FBC0190919502492F50E0FA01E65A86
:10454000F94FD081FA01EC5AF94FC08110929902CB
:1045500010929802909394029F5F909395022091FD
:10456000960230919702215031094217530714F0F7
:1045700010929502672B41F5EFE4F6E0908181817E
:10458000980F8281980F8381980F81E02481921384
:1045900001C080E0182F80EFF4DC85E6F2DC8D2F7F
:1045A000F0DC8C2FEEDCCFE4D6E00F2EF3E5EF2E1F
:1045B000F6E0FF2EF02D8991E4DCCE15DF05D9F76A
:1045C000812FDFDC87EFDDDCDF91CF911F91FF9042
:1045D000EF900895CF93DF9380915F0490916004F2
:1045E0009C012F5F3F4F3093600420935F04209124
:1045F0005D0430915E04281739070CF03EC010921C
:10460000600410925F048091630490916404892B8C
:10461000A1F180915B041AD8EC0120915B043091E8
:104620005C0420935A04C901019690935C04809322
:104630005B04809163049091640401972817390703
:1046400024F010925C0410925B0480EF9ADC83E605
:1046500098DCE0915A04F0E0E152F94F808191DC5E
:104660008C2F8F778EDCCE01880F892F881F990BB6
:1046700091958F7786DC87EF84DCDF91CF91089569
:104680001F920F920FB60F9211240F931F932F9327
:104690003F934F935F936F937F938F939F93AF93CA
:1046A000BF93EF93FF93E09A0E945F2F00912D0636
:1046B00010912E0620912F0630913006DC01CB019F
:1046C000801B910BA20BB30B883C9105A105B10592
:1046D00058F40E945F2F60932D0670932E068093EE
:1046E0002F06909330060FC083E00E94C7040E94FB
:1046F000AF030E945F2F60932D0670932E06809368
:104700002F0690933006FF91EF91BF91AF919F914B
:104710008F917F916F915F914F913F912F911F9159
:104720000F910F900FBE0F901F9018951F920F9230
:104730000FB60F9211240F931F932F933F934F9314
:104740005F936F937F938F939F93AF93BF93EF93F9
:10475000FF93E19A0E945F2F00912D0610912E0683
:1047600020912F0630913006DC01CB01801B910B8C
:10477000A20BB30B883C9105A105B10558F40E942A
:104780005F2F60932D0670932E0680932F069093D3
:1047900030060FC082E00E94C7040E94AF030E944F
:1047A0005F2F60932D0670932E0680932F069093B3
:1047B0003006FF91EF91BF91AF919F918F917F91C3
:1047C0006F915F914F913F912F911F910F910F909A
:1047D0000FBE0F901F901895CF92DF92EF92FF922D
:1047E0000F931F93CF93DF93CDB7DEB7CD58D10989
:1047F0000FB6F894DEBF0FBECDBF80913907813769
:1048000009F4FEC5893779F58091EF069091F0069D
:10481000039708F0F5C5C0901E01D0901F01F60166
:1048200001900020E9F731977F01EC18FD0880EF37
:10483000A8DB89E7A6DB82E0A4DB86E0A2DBE1144B
:10484000F10471F08601EC0CFD1C40E050E0B80171
:1048500081E090E0E9DB0F5F1F4F0E151F05A9F700
:1048600087EF8FDBCDC59091EF061FEF190F8436D0
:1048700009F407C270F48135E9F020F48D3009F4B1
:1048800051C2BEC58F3509F492C1823609F4B7C151
:10489000B7C58637C1F038F4893609F42BC18037A3
:1048A00009F461C1ADC5883709F40CC18A3709F430
:1048B00035C1A6C580EF65DB82E563DB81E061DBA6
:1048C00087EF5FDB9DC500913B0705FD99C50E9401
:1048D0007018E9E3F7E08181928196FB992790F9BE
:1048E00021E029270871083051F118F4002341F024
:1048F00087C5003109F442C0083109F483C080C57E
:104900000E94BA1A1330A0F002E0202F30E0F90123
:10491000E55CF84F8081879588278795F901E65CEB
:10492000F84F9081890F0E94DF1A0E5F011768F31C
:1049300081E00E94C41A86E490E09CDC61C51630D8
:1049400089F4E9E3F7E09481638170E030E8939FB4
:10495000600D711D11244681479544274795958127
:10496000490F0AC0E9E3F7E044814795442747959A
:104970009381490F6FEF7FEF54DD42C540911D01D8
:10498000642F042E000C770B6F5F7F4F683071052A
:1049900024F087E691E0F9DB33C5163091F4E9E3C2
:1049A000F7E09481638170E0A0E89A9F600D711D2B
:1049B00011249681392F3795332737959581930F99
:1049C0000BC0E9E3F7E09481392F3795332737950A
:1049D0009381930F6FEF7FEF4F5F40931D01042E84
:1049E000000C550BFA01EE0FFF1FEE0FFF1F4E0FCD
:1049F0005F1FFA01E558F84F8083728361839383C8
:104A00002483FEC410911D0111168CF4612F012E18
:104A1000000C770B6F5F7F4F161617060CF04EC019
:104A200090917B07891709F4E7C490E012C08FEFDB
:104A300080931D01E5C4F901EE0FFF1FEE0FFF1F6C
:104A40002E0F3F1FF901E558F84F2081821709F416
:104A5000D4C49F5F292F30E02617370764F390E016
:104A6000CCC4983028F5A9014F5F5F4FDA01AA0F37
:104A7000BB1FAA0FBB1FA40FB51FA558B84F8C9121
:104A8000F901EE0FFF1FEE0FFF1F2E0F3F1FF90161
:104A9000E558F84F808311962D913C9112973283FF
:104AA000218313968C911397838314968C9184831E
:104AB0009F5F292F30E0261737079CF21150109383
:104AC0001D019EC4123080F0E9E3F7E0228181816C
:104AD00090E0B0E82B9F800D911D1124009721F0EC
:104AE00090936E0480936D0480916C04811188C44E
:104AF000E6DC86C480EF45DA8AE643DA13EF8FE717
:104B00000FE706C0163010F4812F01C0802F1F5F01
:104B100038DA1630B9F787EF34DA72C4E9E3F7E030
:104B20008281218130E0E0E88E9F200D311D11242B
:104B300030932101209320012115310509F460C42F
:104B400088E290E0B9010E940C3370935E04609398
:104B50005D0480ED97E0B9010E940C3370939B02D5
:104B600060939A024DC4153008F44AC410913A0774
:104B70008EEF810F823108F043C4E9E3F7E08581CD
:104B8000448150E030E8839F400D511D1124838102
:104B9000628170E090E8899F600D711D1124812F62
:104BA0000E94051764E070E0812FECD529C4E9E389
:104BB000F7E091818281911117C09681258130E0C3
:104BC000A0E89A9F200D311D1124032E000C440BE8
:104BD000550B9481638170E0B0E89B9F600D711D5F
:104BE00011240E94FC170CC4913009F009C420E084
:104BF00030E0A90160E070E00E94FC1701C4209140
:104C0000630430916404263031050CF0F9C3E9E304
:104C1000F7E0818180936204928190936104D901CD
:104C2000AA0FBB1FAA0FBB1FA953B94F64814381B1
:104C300050E0E0E86E9F400D511D1124052E000C40
:104C4000660B770B4D935D936D937C931397F901EE
:104C5000E152F94F8083F901EF53F94F90836CE0F3
:104C600070E090D56CE070E0809161048BD580910C
:104C700063049091640401969093640480936304A8
:104C8000BFC32091960230919702263031050CF077
:104C900045C0E9E3F7E081819281492F50E0463138
:104CA000510531F441E0F901E05AF94F40830DC05C
:104CB0004B30510531F44AE0F901E05AF94F408395
:104CC00004C088E791E061DA9BC3F901E65AF94F25
:104CD0008083F901EC5AF94F90836FE070E052D570
:104CE00080919602909197020E948E0F892B09F075
:104CF00087C360919602709197026F5F7F4F7093A8
:104D000097026093960280919A0290919B020E9472
:104D1000203370939B0260939A0272C38DEA91E0F4
:104D200034DA6EC380913A07FE0131969FE7DF01C6
:104D30001D929A95E9F78E3091F50E947018F12C2A
:104D400011E0812F0E94BA1A81E00E94C41A8111D9
:104D500008C0E1E0F0E0EC0FFD1FEF0DF11D108346
:104D6000F3941F5F1F3769F780EF0BD98DE009D9E6
:104D70008EE007D98F2D05D9FF2071F08E010F5FCE
:104D80001F4FF801EF0DF11D7F01D8018D918D01AD
:104D9000F8D8E016F106C9F787EFF3D831C38111CF
:104DA000B7C080913B07813009F04FC0E0913C07CC
:104DB000E0933806F0E0E851FE4F2081822F90E02A
:104DC000969587959695879596958795FC01EE0F14
:104DD000FF1F8E0F9F1FFC01B096277081E090E0AF
:104DE00002C0880F991F2A95E2F780959181982338
:104DF00091839281892382830E94A1038091380646
:104E0000823081F4809171048111FAC281E0809333
:104E10007104F894E99AE9E6F0E080818860808383
:104E20007894EEC2833009F0EBC280917004811156
:104E3000E7C281E080937004F894E89AE9E6F0E034
:104E40008081826080837894DBC28111D9C2E9E3DA
:104E5000F7E0448150E060E070E0032E3CE1440F55
:104E6000551F661F771F3A95D1F7302D9581892FF1
:104E700090E0A0E0B0E0072E75E1880F991FAA1F0F
:104E8000BB1F7A95D1F7702D842B952BA62BB72BB2
:104E9000468150E060E070E0032E3EE0440F551F75
:104EA000661F771F3A95D1F7302D482B592B6A2B67
:104EB0007B2B878190E0A0E0B0E0880F991FAA1FAC
:104EC000BB1F880F991FAA1FBB1F880F991FAA1FFE
:104ED000BB1F880F991FAA1FBB1F880F991FAA1FEE
:104EE000BB1F880F991FAA1FBB1F880F991FAA1FDE
:104EF000BB1F842B952BA62BB72B20852F77BC01AE
:104F0000CD01622B20E230E043810E94EA0578C2A5
:104F1000873109F028C180913B07811120C0E9E366
:104F2000F7E0F3800481B0E80B9F800111248581B4
:104F30008F77082B80EF25D88DE023D887E121D803
:104F400022E54FEFB8018F2D0E944C07811102C05E
:104F500018D802C081E015D887EF13D851C281302C
:104F600009F047C0E9E3F7E0008510E020E030E019
:104F70000F2EF5E1000F111F221F331FFA95D1F7F5
:104F8000F02D818590E0A0E0B0E0072E7EE0880F54
:104F9000991FAA1FBB1F7A95D1F7702D082B192BCB
:104FA0002A2B3B2B828590E0A0E0B0E0689416F8B5
:104FB000880F991FAA1FBB1F1694D1F7082B192B16
:104FC0002A2B3B2B83858F77082B468170E8479FE0
:104FD000A001112487818F77482B648180E8689F26
:104FE000B001112485818F77682B83810E94570B34
:104FF00007C2823039F4E9E3F7E0648183810E94DB
:10500000340AFEC1833009F078C0E9E3F7E0C484D4
:10501000D12CE12CF12C0B2EB5E1CC0CDD1CEE1CBF
:10502000FF1CBA95D1F7B02D858590E0A0E0B0E0E7
:10503000072E7EE0880F991FAA1FBB1F7A95D1F714
:10504000702DC82AD92AEA2AFB2A868590E0A0E09A
:10505000B0E0689416F8880F991FAA1FBB1F16941A
:10506000D1F7C82AD92AEA2AFB2A87858F77C82A46
:10507000008510E020E030E00F2EF5E1000F111F59
:10508000221F331FFA95D1F7F02D818590E0A0E023
:10509000B0E0072E7EE0880F991FAA1FBB1F7A95EC
:1050A000D1F7702D082B192B2A2B3B2B828590E0F2
:1050B000A0E0B0E0689416F8880F991FAA1FBB1FE4
:1050C0001694D1F7082B192B2A2B3B2B83858F772E
:1050D000082B468190E8499FA001112487818F7792
:1050E000482B6481A0E86A9FB001112485818F77E5
:1050F000682B83810E94DC0B83C1843039F4E9E39F
:10510000F7E0648183810E94030D7AC1853039F410
:10511000E9E3F7E0648183810E94870D71C18630E5
:10512000D1F4E9E3F7E0018510E0208530E0468125
:10513000B0E84B9FA001112487818F77482B6481B1
:1051400080E8689FB001112485818F77682B838167
:105150000E94AD0E55C1873009F052C180913C07C5
:105160000E94AF0B4DC1893171F580913B078930A9
:1051700009F046C1F0903C078F2D0E946B108E0104
:1051800000581F4F8CE0D8011D928A95E9F7C8019D
:105190000E943E1280EF0E94C11F8DE00E94C11F3D
:1051A00089E10E94C11F8F2D0E94C11FF8018081DB
:1051B0000E94C11FD80111968C910E94C11F87EFD8
:1051C0000E94C11F1DC1813209F09DC080913B0723
:1051D000863149F4E9E3F7E045814E5064818381EB
:1051E0000E9416020DC1823109F00AC18E010058D9
:1051F0001F4F8EE0F80111928A95E9F7C8010E94CD
:10520000470280EF0E94C11F8DE00E94C11F81E212
:105210000E94C11FD8018D919C91880F892F881FF2
:10522000990B8F770E94C11FF80180818F770E94B0
:10523000C11FD80112968D919C911397880F892FC9
:10524000881F990B8F770E94C11FF80182818F7789
:105250000E94C11FD80114968D919C911597880FBB
:10526000892F881F990B8F770E94C11FF8018481B5
:105270008F770E94C11FD80116968D919C91179728
:10528000880F892F881F990B8F770E94C11FF80103
:1052900086818F770E94C11FD80118968D919C91AD
:1052A0001997880F892F881F990B8F770E94C11F2C
:1052B000F80180858F770E94C11FD8011A968D91C1
:1052C0009C911B97880F892F881F990B8F770E94BD
:1052D000C11FF80182858F770E94C11FD8011C96DB
:1052E0008D919C911D97880F892F881F990B8F771F
:1052F0000E94C11FF80184858F770E94C11F87EF2C
:105300000E94C11F7DC0833209F055C080913B07C8
:10531000873071F4E9E3F7E0458130E8439FA0016D
:1053200011248681482B648183810E94E31568C023
:105330008A3009F065C0CE0180589F4F0E94151633
:105340006B017C0120E030E0A90112D7882324F40E
:10535000F7FAF094F7F8F094C701B6017AD7162F50
:10536000072F80EF0E94C11F8DE00E94C11F83E2C2
:105370000E94C11FC058DF4F8881C058D0400E9492
:10538000C11F802F0E94C11F812F0E94C11F20E0DA
:1053900030E048EC52E4C701B6010E94453259D7CB
:1053A000862F64E60E940033892F0E94C11F87EF79
:1053B0000E94C11F25C0853219F5E9E3F7E012818B
:1053C000038182EF810F0E949D12802F0E942A1577
:1053D000082F80EF0E94C11F8DE00E94C11F85E24F
:1053E0000E94C11F812F0E94C11F802F0E94C11FD8
:1053F00087EF0E94C11F04C090E0292F30E031CB1D
:10540000C357DF4F0FB6F894DEBF0FBECDBFDF919D
:10541000CF911F910F91FF90EF90DF90CF90089563
:105420001F93CF93DF93182FEB018091A40790E097
:1054300068177907A0F0E0912B06F0912C063097C1
:1054400099F081E08093380780913206909133067D
:1054500009958091A40790E0C817D90738F4C75C74
:10546000D84F188380E003C081E001C081E0DF9164
:10547000CF911F910895CF92DF92EF92FF921F93E9
:10548000CF93DF939091A3079923A9F0873F21F44D
:105490001092A307A1D968C16091EF067091F00640
:1054A000BFDF8091EF069091F00601969093F00691
:1054B0008093EF0659C16091790770917A07611561
:1054C000710509F40CC188230CF409C161507109FC
:1054D00070937A0760937907A3DF809179079091A1
:1054E0007A07892B09F040C18091EE06882309F4E0
:1054F0003BC1803D09F4E6C030F48039B1F1803C15
:1055000009F4B9C0E9C0843F09F453C0853F09F4E8
:10551000A2C0803E09F0E0C0C0913207C43108F05B
:10552000DBC0E9E3F7E09181977080818F77E82E07
:10553000F12C40E8949FE00CF11C1124D2818C2FB7
:105540001BD1833039F0843009F0C6C0C7010E94F6
:105550009817C2C08EEF8C0F823108F0BDC06D2F3E
:105560006F77A7018C2FEBD1B7C0E9E3F7E080811B
:10557000E180F12C50E8859FE00CF11C1124109182
:105580003207110F110F110FC0E0D0E0CC24C394EB
:10559000D12CB6010C2E02C0660F771F0A94E2F7D9
:1055A0006E21812F48D121961F5FC830D10589F720
:1055B00093C0E9E3F7E0D081ED2EF12CC1818C2F6F
:1055C000DBD08F3709F488C08EEF8C0F823178F5ED
:1055D000E114F10421F09BE0E916F104A1F4EC2FB1
:1055E000E695E695E695F0E0E551F94F2C2F27700A
:1055F00081E090E002C0880F991F2A95E2F7908120
:10560000892B808314C0EC2FE695E695E695F0E0B3
:10561000E551F94F2C2F277081E090E002C0880FF0
:10562000991F2A95E2F78095908189238083B7019D
:105630008C2FA8D0D23009F04FC0CE5081E090E03E
:1056400002C0880F991FCA95E2F790916F04892BC9
:1056500080936F0441C0C0913A078EEF8C0F823166
:10566000D8F5D09139078C2F87D08130A9F56D2FCF
:105670008C2FE1D031C080913207863068F590914F
:105680003907911110C021E030E0A90102C0440F98
:10569000551F8A95E2F7CA01809590916F0489237E
:1056A00080936F0419C021E030E0A90102C0440FCB
:1056B000551F8A95E2F7CA0190916F04892B809358
:1056C0006F040AC0E0913207E33030F4F0E0E851B3
:1056D000F94F8091390780831092EE0645C0803FD4
:1056E00028F4982F9F7090933207807F803E79F046
:1056F00038F4803C49F1803D39F18039A9F511C079
:10570000843F79F0853FB1F0803F71F526C083E09A
:1057100090E090937A078093790780EE8093EE066D
:1057200023C022E030E030937A07209379078093FA
:10573000EE061AC082E090E090937A078093790792
:1057400085EF8093EE0610C021E030E030937A07B9
:10575000209379078093EE0607C081E08093A3072A
:105760001092F0061092EF06DF91CF911F91FF90FB
:10577000EF90DF90CF900895E82FF0E0EB55F84FD1
:105780008081089590E0FC01EB55F84F20812F3780
:1057900009F450C0FC01EB55F84F608361157105A9
:1057A00021F06130710521F10895FC01E05CFD4FAD
:1057B0008081E82FF0E0F695E795F695E795F69568
:1057C000E7959F01220F331FE20FF31FB096282F9A
:1057D000277081E090E002C0880F991F2A95E2F7B8
:1057E0008095918198239183928189238283089562
:1057F000FC01E05CFD4FE0812E2F277081E090E0FE
:1058000002C0880F991F2A95E2F7F0E0F695E79518
:10581000F695E795F695E7959F01220F331FE20F66
:10582000F31FB096982F90952281922392839181B5
:10583000892B81830895E82FF0E0E05CFD4FE08143
:105840009E2F977021E030E0A90102C0440F551F40
:105850009A95E2F7CA01F0E0F695E795F695E79597
:10586000F695E7959F01220F331FE20FF31FB096C5
:10587000342F30952281232322832181242B2183DD
:10588000662321F09281892B8283089582813823B7
:1058900032830895E82FF0E0E05CFD4FE0812E2F89
:1058A000277081E090E002C0880F991F2A95E2F7E7
:1058B000F0E0F695E795F695E795F695E7959F0163
:1058C000220F331FE20FF31FDF019096982F909560
:1058D00011962C911197292311962C9311971296BA
:1058E0002C911297922312969C9390A1982381E079
:1058F00009F480E00895EAE7F0E0908190649083F5
:10590000908194FFFDCF85FF04C090E290937B00CF
:1059100005C0EBE7F0E090819F7D90838F718064FC
:1059200080937C00EAE7F0E080818064808380815E
:1059300086FDFDCF809178009091790008958F9237
:105940009F92AF92BF92CF92DF92EF92FF920F930E
:105950001F93CF93DF93C82FD0E0FE01E05CFD4F93
:105960002081322F377081E090E002C0880F991FAC
:105970003A95E2F730E03695279536952795369596
:105980002795F901EE0FFF1FE20FF31FB096982F36
:1059900090952281922392839181892B8183FE01AC
:1059A000E295F295F07FFE27E07FFE27EE58FB4F51
:1059B00088EC90E09387828787E390E095878487DF
:1059C0004115510591F0FE01E295F295F07FFE2719
:1059D000E07FFE27EE58FB4F5387428781E090E03F
:1059E00097878687978386830DC0FE01E295F2959F
:1059F000F07FFE27E07FFE27EE58FB4F17861686C6
:105A000017821682662361F0FE01E295F295F07F1F
:105A1000FE27E07FFE27EE58FB4F70E07587648716
:105A20008E0102951295107F1027007F10270E58C7
:105A30001B4FD8011A962D913C911B97032E000CF9
:105A4000440B550B0F2EF0E9CF2EF0EDDF2EF3E0D7
:105A5000EF2EF12CF02DC701B60127D6CA01B901EE
:105A6000615071098109910922D420E030E048ECAD
:105A700052E482D34B015C01F80164857585072EE1
:105A8000000C880B990B13D49B01AC01C501B40128
:105A9000FCD45ED5D9D3D80111967C936E931A9617
:105AA0002D913C911B97032E000C440B550BC70105
:105AB000B601FBD5CA01B90161507109810991098B
:105AC000F6D320E030E048EC52E456D36B017C0181
:105AD000F8018485958564E670E0681B790B072ED4
